:020000040800F2
:1000000000530020295B0008E9590008EB5900085B
:10001000ED590008EF590008F159000800000000F0
:10002000000000000000000000000000A11A00080D
:10003000F359000800000000491A0008A110000848
:10004000895B00088D5B0008915B0008955B0008E8
:10005000995B00089D5B0008A15B0008A55B000898
:10006000A95B0008AD5B0008B15B0008B55B000848
:10007000B95B0008BD5B0008C15B0008C55B0008F8
:10008000C95B0008CD5B0008D15B0008D55B0008A8
:10009000D95B0008DD5B0008E15B0008E55B000858
:1000A000E95B0008ED5B0008F15B0008F55B000808
:1000B000F95B00080000000000000000FD5B000884
:1000C000015C0008055C0008095C00080D5C000884
:1000D000115C0008155C0008F5590008195C00085F
:1000E0001D5C0008215C000800000000000000000A
:1000F0000000000000000000000000000000000000
:1001000000000000255C000800000000295C0008D9
:1001100000000000000000002D5C0008FF590008EE
:10012000315C0008355C0008395C00083D5C000863
:10013000415C00080000000000000000000000001A
:10014000455C0008495C00084D5C000800000000A8
:10015000515C0008555C0008595C00085D5C0008B3
:10016000615C0008655C0008695C00080000000034
:100170006D5C0008715C00080000000000000000D9
:10018000755C0008795C00087D5C00082DE9F04F83
:1001900085B006000F0090469946DDF838A00F9C08
:1001A000109D002C07D1502080F31188BFF34F8F92
:1001B000BFF36F8FFEE7002D07D1502080F3118829
:1001C000BFF34F8FBFF36F8FFEE75C200090009866
:1001D0005C2807D0502080F31188BFF34F8FBFF306
:1001E0006F8FFEE70098002D19D0002C17D0AB467A
:1001F000CBF8304002208BF8590000200390CDF856
:1002000008B004A80190CDF800A04B464246390042
:10021000300000F047F8584600F0B7F801E0002041
:100220000490049805B0BDE8F08F2DE9F84F84B034
:1002300006000F0090469946DDF838A0DDF83CB086
:10024000404680B2800000F0B1FC0500002D0BD0CC
:100250005C2000F0ABFC0400002C01D0256304E01E
:10026000280000F033FD00E00024002C15D0002011
:1002700084F85900002003900294CDF804B0CDF822
:1002800000A04B46424692B23900300000F00AF816
:10029000200000F07AF8012001E05FF0FF3005B0A7
:1002A000BDE8F08F2DE9F94F81B00C0016000C9FCE
:1002B0000D9DDDF83880B00000905FF0A50BD8F8F8
:1002C00030A05A460099504600F0AAFDD8F83000F8
:1002D00000EB8600B0F1040A5FEADA0A5FEACA0AB4
:1002E0001AF00700002807D0502080F31188BFF3D0
:1002F0004F8FBFF36F8FFEE7002C15D00020814693
:10030000B9F1100F0CD214F8090008EB090181F8BB
:10031000340014F80900002802D019F10109EFE7B0
:10032000002088F8430002E0002088F83400382FCD
:1003300001D337200700C8F82C70C8F84C70002093
:10034000C8F8500018F1040000F0ACFD18F11800D6
:1003500000F0A8FDC8F81080D7F13800C8F81800E0
:10036000C8F824800020C8F85400002088F85800FD
:10037000029A0199504600F0D3FDC8F80000002D04
:1003800001D0C5F80080BDE8F78F38B5040000F053
:1003900057FEDFF8DC130868401C0860DFF8D45310
:1003A0002868002806D12C60086801280DD100F0CB
:1003B000BFFA0AE0DFF8C0030068002805D1E06A50
:1003C0002968C96A884200D32C60DFF8B00301684D
:1003D000491C016000686064DFF8E4030168E26AB8
:1003E000914201D2E16A0160211DDFF8D823E36A5E
:1003F0001420434302EB030000F057FD00F03AFEE7
:10040000DFF87403006800280DD02868C06AE16A2C
:10041000884208D25FF08050DFF84C140860BFF3C8
:100420004F8FBFF36F8F31BD10B586B000200490A1
:100430000020039005AA03A904A801F07FF8DFF8C3
:10044000A446049802900398019000200090002395
:10045000059ADFF894160FF2B540FFF797FE20607B
:100460002068002801D0012400E00024012C02D1E2
:1004700001F080F80400012C16D1502080F311887F
:10048000BFF34F8FBFF36F8F5FF0FF30DFF85C1665
:1004900008600120DFF8E01208600020DFF8B013E8
:1004A000086000F066FD0AE014F1010F07D150204A
:1004B00080F31188BFF34F8FBFF36F8FFEE706B055
:1004C00010BDDFF888030168491C01607047F8B56A
:1004D00000250026DFF874432068002807D150204B
:1004E00080F31188BFF34F8FBFF36F8FFEE700F0EB
:1004F000A7FD2068401E20602068002856D1DFF844
:1005000070020068002851D0DFF8D4150868002870
:1005100026D0C868C068050015F1180000F0ECFC92
:10052000281D00F0E9FCDFF898020168EA6A9142B0
:1005300001D2E96A0160291DDFF88822EB6A1420E4
:10054000434302EB030000F0B0FCE86A8949096804
:10055000C96A8842D8D30120DFF898150860D3E72C
:10056000002D01D000F052FADFF884753C68002CB1
:100570000CD000F023F8002803D00120DFF8741518
:100580000860641E002CF4D100203860DFF8640598
:10059000006800280AD0012006005FF08050DFF8D4
:1005A000C8120860BFF34F8FBFF36F8F00F062FD7A
:1005B0003000F2BDDFF89802006870472DE9F04185
:1005C0000027A248006800286ED1DFF88402046882
:1005D000641C0460002C1CD1DFF828130868006834
:1005E000002807D0502080F31188BFF34F8FBFF34E
:1005F0006F8FFEE7D1F80080DFF80C0302680A6015
:10060000C0F80080DFF8F0040168491C016000F0C8
:10061000FDF9DFF8D884D8F80000844238D3DFF839
:10062000E41208680068002804D15FF0FF30C8F8C1
:1006300000002DE00868C068C06805006868060012
:10064000B44202D2C8F8006022E0281D00F054FC39
:10065000A86A002803D015F1180000F04DFC584896
:100660000168EA6A914201D2E96A0160291D554A8E
:10067000EB6A1420434302EB030000F016FCE86A27
:100680003C490968C96A8842C9D301200700C6E706
:10069000384800684B49C26A1420424388580228EF
:1006A00007D30120070004E0DFF844040168491C77
:1006B0000160DFF840040068002801D00120070035
:1006C0003800BDE8F08110B460480068002804D00C
:1006D0000120DFF8201408602CE00020DFF814145B
:1006E0000860374A10681423364C03FB00F1615848
:1006F00000290BD1002807D1502181F31188BFF3C5
:100700004F8FBFF36F8FFEE7401EECE703FB00F354
:1007100004EB03014B685B684B604B6811F1080404
:10072000A34202D14B685B684B604968C968114BB2
:100730001960106010BC704738B504000D00002C23
:1007400007D1502080F31188BFF34F8FBFF36F8F15
:10075000FEE7DFF8AC03006810F11801200000F09C
:10076000B0FB0121280000F0D1F931BD00000000EC
:10077000BC4E0020AC4E0020C84E0020D84E0020B9
:1007800070B505000E001400002D07D1502080F335
:100790001188BFF34F8FBFF36F8FFEE7DFF8D803E9
:1007A000006810F11801280000F07FFB002C02D037
:1007B0005FF0FF3006002100300000F0A7F970BDA7
:1007C000C44E0020903E002038B50500E868C4689B
:1007D000002C07D1502080F31188BFF34F8FBFF357
:1007E0006F8FFEE714F1180000F086FB17480068D1
:1007F000002815D1201D00F07FFBDFF808030168F9
:10080000E26A914201D2E16A0160211DDFF8F8221B
:10081000E36A1420434302EB030000F046FB05E0CB
:1008200014F11801DFF8B80200F03FFBDFF8D00246
:100830000068C06AE16A884205D201200121DFF820
:10084000BC22116000E0002032BD0000E44E002018
:10085000C04E0020DFF8A01209680160DFF8201305
:10086000096841607047000004ED00E02DE9F041A7
:1008700004000D00002C07D1502080F31188BFF335
:100880004F8FBFF36F8FFEE7002D07D1502080F30D
:100890001188BFF34F8FBFF36F8FFEE700F0D0FBDF
:1008A000DFF8DC0206686768F71B286810F1010FA3
:1008B00002D15FF000081BE0DFF83C02006821680D
:1008C000884205D06068864202D35FF001080FE0DD
:1008D0002868874208D22868C01B28602000FFF7DC
:1008E000B9FF5FF0000803E0002028605FF0010816
:1008F00000F0C0FB4046BDE8F0810120DFF8FC11AC
:1009000008607047B04E0020B44E002010B50400BF
:1009100000F039F8DFF8F00100680228F8D35FF042
:10092000805028490860BFF34F8FBFF36F8FEFE708
:1009300070B50024382C09D2DFF8CC01142101FB5A
:1009400004F1084400F09FFA641CF3E7DFF8345226
:10095000280000F098FADFF83062300000F093FAD7
:10096000DFF87C0100F08FFADFF8200200F08BFA4C
:10097000DFF81C0200F087FADFF818020560DFF8E4
:100980001802066070BD38B5DFF8105228680028DC
:1009900017D000F055FBDFF8F401C068C068040010
:1009A000201D00F0A9FADFF8F8010168491E016076
:1009B0002868401E286000F05DFB200000F004F86D
:1009C000E2E731BD04ED00E010B5040094F85900F1
:1009D000002806D1206B00F079F9200000F076F9AC
:1009E00013E094F85900012803D1200000F06EF9BB
:1009F0000BE094F85900022807D0502080F31188AA
:100A0000BFF34F8FBFF36F8FFEE710BDDFF8842178
:100A100010680068002804D15FF0FF30334A10608E
:100A200006E01068C068C068010048682F4A10607E
:100A30007047DFF870010068002801D1012007E04D
:100A4000DFF838010068002801D1022000E0002012
:100A5000704770B5040025000026002C3ED0DFF85A
:100A6000A0000068854207D0502080F31188BFF3B2
:100A70004F8FBFF36F8FFEE7286D002807D15020FE
:100A800080F31188BFF34F8FBFF36F8FFEE7286DA0
:100A9000401E2865E86AE96C88421FD0286D00284E
:100AA0001CD1281D00F028FAE86CE862E86AD0F151
:100AB0003800A861DFF84C000168EA6A914201D26F
:100AC000E96A0160291DDFF84020EB6A14204343E6
:100AD00002EB030000F0E9F901200600300070BDD0
:100AE0001C4E0020E04E0020685B0008DC4E002019
:100AF000CC4E0020D04E0020D44E0020D04E0020FE
:100B0000AC4E0020C44E0020903E00202DE9F04164
:100B100005000C001A480768DFF85C80D8F8000070
:100B2000001D00F0E9F915F1010F08D1002C06D0E5
:100B3000D8F80000011D164800F0B7F91AE0E819CE
:100B40000600D8F800004660BE4207D2D8F8000080
:100B5000011D1148006800F0B4F90BE0D8F800005E
:100B6000011D0C48006800F0ACF90F4801688E4286
:100B700000D20660BDE8F081AC4E0020E44E0020BB
:100B8000C04E0020F44D0020084E0020304E0020C2
:100B9000444E0020B04E0020B44E0020B84E00203D
:100BA000BC4E0020C84E0020DC4E00202DE9F84F3E
:100BB00004005FF00008FFF784FCDFF84892D9F8E2
:100BC0000000002801D100F0BBF8DFF83CA2DAF801
:100BD0000000044269D1002C15D08C48006804192B
:100BE00014F0070F0FD014F1080014F00704041BD1
:100BF00014F0070F07D0502080F31188BFF34F8FF8
:100C0000BFF36F8FFEE7002C4FD0DFF804B2DBF8A4
:100C10000000A04249D37F480600006805006868CC
:100C2000A04205D22868002802D02E002D68F6E7E1
:100C3000D9F80000854238D0744831680268114400
:100C4000884629683160006840006968091B88424D
:100C500015D205EB0400070017F00700002807D0A5
:100C6000502080F31188BFF34F8FBFF36F8FFEE7E3
:100C70006868001B78606C60380000F092F8DBF860
:100C800000106868091ACBF800106348DBF8001000
:100C90000268914202D2DBF8001001606968DAF85C
:100CA00000000143696000202860FFF710FC18F085
:100CB0000700002807D0502080F31188BFF34F8F22
:100CC000BFF36F8FFEE74046BDE8F28F70B50400BA
:100CD0002600002C33D04D480068404206443500C1
:100CE000494968680A68104207D1502080F311888A
:100CF000BFF34F8FBFF36F8FFEE72868002807D040
:100D0000502080F31188BFF34F8FBFF36F8FFEE742
:100D100068680A68104212D0286800280FD16A68F3
:100D2000086882436A60FFF7CCFB39490A68686843
:100D300082180A60280000F034F8FFF7C8FB70BD85
:100D400070B44FF47A523548010011F0070F04D007
:100D5000C91DC908C900521A82180B002D4803602A
:100D600000244460D41829480068241AE408E400E8
:100D7000244D2C6000202E68706000202E683060AA
:100D80001800261A46602D6805604568224E3560B9
:100D900045681F4E35605FF000451B4E356070BCE6
:100DA000704730B41B4A1168814201D21268FAE7D9
:100DB000140051682144814204D153684168CB1822
:100DC000536010000300416819441568A94210D10E
:100DD0000C4914680D68AC4208D044681168496831
:100DE0000C19446011680968016004E00968016039
:100DF00001E011680160824200D0106030BC704791
:100E000000000000944E0020A04E0020805B0008EF
:100E1000984E0020804E00209C4E002010000020A4
:100E200062F30F2262F31F42401810F0030308D050
:100E3000C91A1FD3DB0748BF00F8012D28BF20F8CF
:100E4000022D130030B414461546103928BF20E98E
:100E50003C00FAD8490728BF20E90C0048BF40F8F9
:100E6000042D890028BF20F8022D48BF00F8012D6D
:100E700030BC7047C91818BF00F8012DCB0728BF38
:100E800000F8012D704710F1080141605FF0FF315B
:100E9000816010F10801C16010F1080101610021B9
:100EA0000160704700210161704742684A609368A1
:100EB0008B60936859609160086103685B1C0360F4
:100EC000704710B40B6813F1010F01D1026907E0FC
:100ED00010F1080254682468A34201D35268F9E76C
:100EE00054684C604C68A1608A6051600861046875
:100EF000641C046010BC7047010008698A684B6874
:100F00009A604A688B685A6042688A4201D18A684E
:100F1000426000220A610268521E02600068704747
:100F2000001F5FF080730360001F4B085B000360CD
:100F3000001F0FF21503036014380260001F7FF0DA
:100F400002030360203870477348006810F1010FF6
:100F500007D0502080F31188BFF34F8FBFF36F8FFE
:100F6000FEE7502080F31188BFF34F8FBFF36F8FE0
:100F7000FEE7E0B569480168694A914207D150200F
:100F800080F31188BFF34F8FBFF36F8FFEE70068C8
:100F90006449884207D1502080F31188BFF34F8FF6
:100FA000BFF36F8FFEE7604801780191FF21017068
:100FB00001788DF800109DF8001011F050015B4A87
:100FC00011705B4907220A609DF80020120608D5BF
:100FD0000A68521E0A609DF8002052008DF8002019
:100FE000F2E70A68D2F10702042A07D0502181F300
:100FF0001188BFF34F8FBFF36F8FFEE70A681202AD
:101000000A600A6812F4E0620A60019901704948B6
:10101000016851F470010160016851F07041016094
:1010200000F092F800203C49086000F057FD42486B
:10103000016851F04041016000F040FD00200EBD0C
:10104000502080F31188BFF34F8FBFF36F8F324969
:101050000A68521C0A60096801290AD137490968DF
:10106000090606D080F31188BFF34F8FBFF36F8F4F
:10107000FEE7704728490868002807D1502080F310
:101080001188BFF34F8FBFF36F8FFEE70868401ED4
:1010900008600868002802D1002080F3118870479A
:1010A00080B5502080F31188BFF34F8FBFF36F8F4F
:1010B000FFF784FA002803D05FF080501F490860D2
:1010C000002080F3118801BDEFF30580102811D3B3
:1010D0001B4A1268125C11000A00144B1B78D2B232
:1010E0009A4207D2502282F31188BFF34F8FBFF389
:1010F0006F8FFEE70E4A1268124B1B6813F4E06311
:101100009A4207D2502282F31188BFF34F8FBFF368
:101110006F8FFEE7704700000000002000ED00E048
:1011200071C20F4170C20F4100E400E0FC4E00208C
:10113000A44E002020ED00E034EF00E004ED00E0DC
:10114000845B00080CED00E00848002101600021EC
:10115000074A1160074909684FF47A72B1FBF2F14E
:10116000491E054A116007210160704710E000E048
:1011700018E000E00800002014E000E07047EFF302
:10118000058000280CD1EFF31080002803D1EFF385
:101190001180002807D0DFF870010068022802D112
:1011A0007FF005000AE0DFF860110868002803D12D
:1011B00001200860002001E05FF0FF30704710B5AB
:1011C000EFF3058000280CD1EFF31080002803D145
:1011D000EFF31180002807D0DFF82C010068022807
:1011E00002D17FF005000EE0DFF81C4120680128E5
:1011F00007D1FFF7C3FF02202060FFF715F9002099
:1012000001E05FF0FF3010BD2DE9FF470700884681
:10121000140000200390EFF3058000286FD1EFF356
:101220001080002803D1EFF31180002804D0DFF8EC
:10123000D8000068022862D0380000285FD08020E3
:10124000824618200500002081465FF0FF3006002E
:10125000002C33D02068002801D020688146A06986
:10126000002801D0A0690500002D04D0392D02D23C
:101270002079C00701D5002042E06069002802D033
:10128000606980088246A06800280BD0E0685C286E
:1012900008D32069002805D06069002802D0012009
:1012A00006000DE0A06800280AD1E068002807D1F8
:1012B0002069002804D10020060001E0002006007B
:1012C000012E0CD1A0680290206901900095434640
:1012D000524649463800FEF759FF03900FE0002EB2
:1012E0000DD103A8019000954346524692B249465B
:1012F0003800FEF79AFF012801D0002003900398E0
:1013000004B0BDE8F0870000884E00202DE9F843C6
:1013100005000E0014005FF00008EFF305800028C0
:1013200059D1EFF31080002803D1EFF3118000288A
:1013300004D0DFF82802006802284CD0002D4AD0E3
:10134000002E48D05FF0FF300700002C1FD0A068AF
:1013500000280DD0E06850280AD32069002807D063
:10136000606906FB05F1884202D30120070010E006
:10137000A06800280DD1E06800280AD12069002863
:1013800007D16069002804D10020070001E0002097
:101390000700012F09D100200090A36822693100C5
:1013A000280000F0F3FB804607E0002F05D1002263
:1013B0003100280000F04BFC8046B8F1000F0AD045
:1013C000002C02D02068814601E000208146494679
:1013D000404600F094FF4046BDE8F2832DE9F84313
:1013E00007000C0090461D003E005FF00009EFF37F
:1013F000058000280BD1EFF31080002803D1EFF314
:101400001180002827D055480068022823D1002EDB
:1014100003D0002C01D0002D03D07FF003008146C3
:1014200032E00020009000236A462100300000F0E6
:101430002AFD012803D07FF00200814624E00098B5
:10144000002821D05FF0805045490860BFF34F8FDE
:10145000BFF36F8F18E0002E01D0002C03D17FF076
:101460000300814610E000232A002100300000F034
:1014700037FC012808D0002D03D07FF00100814601
:1014800002E07FF0020081464846BDE8F2832DE984
:10149000F84307000C0090461D003E005FF0000975
:1014A000EFF3058000280BD1EFF31080002803D163
:1014B000EFF31180002826D028480068022822D1A6
:1014C000002E03D0002C01D0002D03D07FF00300AC
:1014D000814630E0002000906A462100300000F094
:1014E000F9FD012803D07FF00200814623E0009837
:1014F000002820D05FF0805019490860BFF34F8F5B
:10150000BFF36F8F17E0002E01D0002C03D17FF0C6
:10151000030081460FE02A002100300000F023FD87
:10152000012808D0002D03D07FF00100814602E0A1
:101530007FF0020081464846BDE8F283094B036014
:10154000094B0B60802313607047084B0360084B06
:101550000B604FF48073136070470000884E0020CA
:1015600004ED00E03C4C0020F0460020984C0020A8
:10157000F042002038B586B0002400F027FADFF8EA
:101580009804006800281ED00020049000200390DA
:1015900005AA03A904A8FFF7D8FFDFF88054049830
:1015A000029003980190022000900023059ADFF832
:1015B00070140FF21D10FEF7E9FD2860286800285E
:1015C00001D001200400002C07D1502080F31188A5
:1015D000BFF34F8FBFF36F8FFEE7200007B030BD22
:1015E0002DE9FF4704000D0016001F00DDF83080D4
:1015F0005FF00009002C07D1502080F31188BFF361
:101600004F8FBFF36F8FFEE7DFF80CA4DAF800000E
:10161000002822D0009501960294062D15DAFFF7D6
:1016200008FA022808D1002342466946DAF8000089
:1016300000F056FB814610E0002300226946DAF8EC
:10164000000000F04DFB814607E000233A006946A8
:10165000DAF8000000F017FC8146484604B0BDE807
:10166000F087F8B505000E00DFF8B8030068C06821
:10167000C768381DFFF740FC97F8280040071CD5C5
:101680002B003200B9694919380000F090F80028A1
:1016900019D00020009000232A0000213800FFF715
:1016A0009FFF0400002C07D1502080F31188BFF366
:1016B0004F8FBFF36F8FFEE705E097F8280010F01B
:1016C000FE0087F828003800396A8847F1BD00001D
:1016D00038B50400684600F042F80500009928007B
:1016E00000F003F800F08CF8F4E77CB505000C007E
:1016F000FEF7E7FE684600F046F80600009800286E
:101700002AD1002C08D1AE4206D3FEF7E0FE31000C
:101710002800FFF7A6FF21E0002C08D0DFF808031F
:1017200000680068002801D1012400E000242200A4
:10173000A91BDFF8E402006800F0F6FDFEF7C7FE23
:1017400000280BD15FF08050DFF8E0120860BFF393
:101750004F8FBFF36F8F01E0FEF7B9FE73BD01003D
:10176000DFF8C02210680068002801D1012000E0E5
:10177000002008600868002803D11068C06800686D
:1017800000E00020704770B50400FEF713FF05006D
:10179000DFF89C623068854204D200F0D0F8012066
:1017A000206001E0002020603560280070BD2DE938
:1017B000F04104000D0016001F005FF00008656096
:1017C0002461AE420DD3F01BA169884202D30120EF
:1017D000804612E0211DDFF850020068FFF771FB20
:1017E0000BE0BE4204D2BD4202D30120804604E099
:1017F000211D8C480068FFF764FB4046BDE8F0817E
:10180000F8B586B0002201A98348006800F0ABFB60
:10181000002800F09280019800280ED502AD002D1E
:1018200007D1502080F31188BFF34F8FBFF36F8F24
:10183000FEE7A96868682A68904701980028E1D403
:10184000039806007069002802D0301DFFF754FB92
:1018500005A8FFF798FF0700019800280ED002287E
:101860000CD00BD304283DD035D3062806D054D352
:10187000082830D002D3092834D05DE096F828003B
:1018800050F0010086F82800029B3A000299B069E6
:1018900041183000FFF78BFF00281BD03000316A61
:1018A000884796F82800400714D5002000900023B0
:1018B000029AB069821800213000FFF791FE0400FF
:1018C000002C07D1502080F31188BFF34F8FBFF356
:1018D0006F8FFEE796E796F8280010F0FE0086F876
:1018E00028008FE796F8280050F0010086F82800BD
:1018F0000298B061B069002807D1502080F31188A8
:10190000BFF34F8FBFF36F8FFEE73B003A00B16923
:10191000C9193000FFF74BFF74E796F828008007DD
:1019200003D43000FFF7D2F905E096F8280010F054
:10193000FE0086F8280065E764E707B0F0BD2DE9F2
:10194000FC41DFF8E080D8F800000068002834D0BF
:10195000D8F80000C06800680500D8F80000C0682A
:10196000C0680700381DFFF7C7FA3800396A884792
:1019700097F828004007E4D5B86940190600B54239
:1019800007D27E603F61391DD8F80000FFF799FA51
:10199000D7E70020009000232A0000213800FFF73D
:1019A0001FFE0400002C07D1502080F31188BFF3E4
:1019B0004F8FBFF36F8FFEE7C3E7D8F800001A49D7
:1019C0000A68C8F800200860BDE8F3817CB5FFF71D
:1019D00037FB114C206800281BD1164D2800FFF75B
:1019E00052FA154E3000FFF74EFA0E4805600E48C9
:1019F000066000200090114B114A10210A2000F0CF
:101A0000C5F820602068002803D00E49206800F047
:101A100076FCFFF72FFB73BDF04E0020F44E002044
:101A2000705B0008E84E0020EC4E002004ED00E062
:101A3000F84E0020584E00206C4E0020F44C002040
:101A4000F0480020785B0008EFF30980BFF36F8F48
:101A5000264B1A681EF0100F08BF20ED108A20E9EF
:101A6000F04F106009B44FF0500080F31188BFF3BD
:101A70004F8FBFF36F8FFEF726FE4FF0000080F30D
:101A8000118809BC19680868B0E8F04F1EF0100F03
:101A900008BFB0EC108A80F30988BFF36F8F7047DE
:101AA000124B19680868B0E8F04F80F30988BFF35B
:101AB0006F8F4FF0000080F3118870470C4800686A
:101AC000006880F308884FF0000080F3148862B645
:101AD00061B6BFF34F8FBFF36F8F00DFDFF81400E5
:101AE000016841F47001016070470000AC4E0020B5
:101AF00008ED00E088ED00E070B506000C00350050
:101B0000002D07D1502080F31188BFF34F8FBFF312
:101B10006F8FFEE7FFF794FA2968EA6B286C42435F
:101B200001EB0200A8600020A863286868602968AB
:101B3000EA6B521E286C424301EB0200E8605FF042
:101B4000FF3085F8440085F84500002C12D1286943
:101B5000002817D015F11000FEF736FE002811D02E
:101B60005FF08050DFF868150860BFF34F8FBFF358
:101B70006F8F07E015F11000FFF785F915F12400CC
:101B8000FFF781F9FFF776FA012070BD2DE9F843E0
:101B900006000C0015001F00DDF82090002E07D174
:101BA000502080F31188BFF34F8FBFF36F8FFEE794
:101BB000002F07D1502080F31188BFF34F8FBFF360
:101BC0006F8FFEE7002D01D0002C01D0012000E036
:101BD0000020C0B2002807D1502080F31188BFF345
:101BE0004F8FBFF36F8FFEE7002D01D1002C01D185
:101BF000012000E00020C0B2002807D1502080F36F
:101C00001188BFF34F8FBFF36F8FFEE75020009016
:101C10000098502807D0502080F31188BFF34F8FD1
:101C2000BFF36F8FFEE70098B846B8F1000F0BD0F6
:101C3000012088F84600CDF800804B46DBB22A0030
:101C40002100300000F031F84046BDE8F2832DE974
:101C5000F84304000D001700002C07D1502080F33A
:101C60001188BFF34F8FBFF36F8FFEE7002D02D1B6
:101C70005FF0000901E005FB04F919F15000FEF7DF
:101C800095FF0600002E0DD0300050308046002019
:101C900086F8460000963B00DBB242462900200051
:101CA00000F003F83000BDE8F2832DE9F0410500B3
:101CB0000C0016001F00DDF81880002C02D1C8F8B7
:101CC000008001E0C8F80060C8F83C50C8F8404007
:101CD00001214046FFF710FF88F84C70BDE8F08105
:101CE0002DE9F74380460D00994600244646002E14
:101CF00007D1502080F31188BFF34F8FBFF36F8F50
:101D0000FEE7002D02D1306C002801D1012000E057
:101D10000020C0B2002807D1502080F31188BFF303
:101D20004F8FBFF36F8FFEE7B9F1020F02D1F06B57
:101D3000012801D1012000E00020C0B2002807D115
:101D4000502080F31188BFF34F8FBFF36F8FFEE7F2
:101D5000FEF76FFE002802D10298002801D1012071
:101D600000E00020C0B2002807D1502080F3118885
:101D7000BFF34F8FBFF36F8FFEE7FFF761F9B06BD3
:101D8000F16B884202D3B9F1020F27D14A462900EC
:101D9000300000F0F7F90700706A00280FD016F144
:101DA0002400FEF711FD002814D05FF08050DFF80A
:101DB00020130860BFF34F8FBFF36F8F0AE0002F2F
:101DC00008D05FF08050DFF808130860BFF34F8F32
:101DD000BFF36F8FFFF74EF9012052E00298002801
:101DE00003D1FFF747F900204BE0002C04D16846EF
:101DF000FEF730FD01200400FFF73CF9FEF761FB20
:101E0000FFF71EF996F9440010F1010F02D10020EE
:101E100086F8440096F9450010F1010F02D1002028
:101E200086F84500FFF726F902A96846FEF71EFD71
:101E3000002820D1300000F053FA002815D0029974
:101E400016F11000FEF778FC300000F004FAFEF7FF
:101E50003EFB002891D15FF08050DFF874120860DB
:101E6000BFF34F8FBFF36F8F87E7300000F0F3F9B8
:101E7000FEF72DFB81E7300000F0EDF9FEF727FBC0
:101E80000020BDE8FE832DE9F04707000C00150097
:101E900098463E00002E07D1502080F31188BFF3F2
:101EA0004F8FBFF36F8FFEE7002C02D1306C0028FC
:101EB00001D1012000E00020C0B2002807D150204D
:101EC00080F31188BFF34F8FBFF36F8FFEE7B8F138
:101ED000020F02D1F06B012801D1012000E00020A7
:101EE000C0B2002807D1502080F31188BFF34F8F74
:101EF000BFF36F8FFEE7FFF7E7F8EFF3118950208C
:101F000080F31188BFF34F8FBFF36F8FB06BF16B0E
:101F1000884202D3B8F1020F20D196F945A042467B
:101F20002100300000F02EF950465FF0FF3140B242
:101F300088420DD1706A00280ED016F12400FEF7F9
:101F400043FC002808D0002D06D00120286003E0C3
:101F50001AF1010086F84500012000E0002089F315
:101F60001188BDE8F0872DE9F64182B080460E0069
:101F700000244746002F07D1502080F31188BFF37B
:101F80004F8FBFF36F8FFEE7002E02D1386C002811
:101F900001D1012000E00020C0B2002807D150206C
:101FA00080F31188BFF34F8FBFF36F8FFEE7FEF70B
:101FB00040FD002802D10398002801D1012000E053
:101FC0000020C0B2002807D1502080F31188BFF351
:101FD0004F8FBFF36F8FFEE7FFF732F8BD6B002D19
:101FE0001BD03100380000F01BF9681EB863386957
:101FF00000280ED017F11000FEF7E6FB002808D0ED
:102000005FF08050DFF8C8100860BFF34F8FBFF358
:102010006F8FFFF72FF8012057E00398002803D1B6
:10202000FFF728F8002050E0002C04D16846FEF7A6
:1020300011FC01200400FFF71DF8FEF742FAFEF73D
:10204000FFFF97F9440010F1010F02D1002087F83B
:10205000440097F9450010F1010F02D1002087F8E4
:102060004500FFF707F803A96846FEF7FFFB0028C5
:1020700020D1380000F026F9002815D0039917F177
:102080002400FEF759FB380000F0E5F8FEF71FFAD0
:102090000028A1D15FF08050DFF834100860BFF352
:1020A0004F8FBFF36F8F97E7380000F0D4F8FEF73B
:1020B0000EFA91E7380000F0CEF8FEF708FA380083
:1020C00000F000F9002887D0002004B0BDE8F081BE
:1020D00004ED00E02DE9F04780460C00150046466F
:1020E000002E07D1502080F31188BFF34F8FBFF32C
:1020F0006F8FFEE7002C02D1306C002801D1012047
:1021000000E00020C0B2002807D1502080F31188E1
:10211000BFF34F8FBFF36F8FFEE7FEF7D5FFEFF3EF
:102120001189502080F31188BFF34F8FBFF36F8F59
:10213000B76B002F21D096F944A02100300000F0A9
:102140006FF8781EB06350465FF0FF3140B28842AE
:102150000DD1306900280ED016F11000FEF734FBC7
:10216000002808D0002D06D00120286003E01AF1D5
:10217000010086F84400012000E0002089F3118866
:10218000BDE8F0872DE9F84F06000F0014005FF05E
:102190000008B56B306C002809D1306800283AD1AE
:1021A000B068FEF756FC80460020B06033E0002C9B
:1021B00014D1D6F84090BA46D6F804B04A465146F3
:1021C000584600F0D7F87068316C08447060706849
:1021D000B16888421FD3306870601CE0D6F8409028
:1021E000BA46D6F80CB04A465146584600F0C2F8F6
:1021F000F068316C49420844F060F0683168884208
:1022000004D2B068316C49420844F060022C02D11B
:10221000002D00D06D1E681CB0634046BDE8F28FF3
:102220002DE9F04104000D00206C002811D0E06879
:10223000216C0844E060E068A168884201D320680E
:10224000E060266CE768A84632003900404600F09E
:1022500091F8BDE8F081F8B50400FEF7F1FE94F9BD
:102260004550280040B201280CDB606A002809D0E4
:1022700014F12400FEF7A8FA002801D0FEF73DFB78
:102280006D1EEEE75FF0FF3684F84560FEF7F2FE64
:10229000FEF7D6FE94F94470380040B201280CDBFA
:1022A0002069002809D014F11000FEF78DFA0028EB
:1022B00001D0FEF722FB7F1EEEE784F84460FEF7B4
:1022C000D9FEF1BD38B50400FEF7BAFEA06B0028B8
:1022D00001D1012500E00025FEF7CCFE280032BD2B
:1022E00038B50400FEF7ACFEA06BE16B884201D16B
:1022F000012500E00025FEF7BDFE280032BD10B428
:102300000023082B0CD2074C54F83320002A05D1A7
:1023100044F8331004EBC302506001E05B1CF0E7AB
:1023200010BC7047904D0020F8B504000D00160059
:102330002700FEF785FE97F9440010F1010F02D146
:10234000002087F8440097F9450010F1010F02D1F1
:10235000002087F84500FEF78DFEB86B002805D1F8
:102360003200290017F12400FEF70AFA3800FFF7BF
:1023700072FFF1BD62B38B0708D0521E11F8013B0A
:1023800000F8013B00F024808B07F6D1830740F072
:10239000208000BF103A07D330B4B1E83810103AAB
:1023A000A0E83810F9D230BC530724BFB1E80810B8
:1023B000A0E8081044BF51F8043B40F8043BD207A2
:1023C00024BF31F8022B20F8022B44BF0B78037096
:1023D0007047121F17D35B0009D151F8043B20F856
:1023E000023B1B0C121F20F8023BF6D20BE051F807
:1023F000043B00F8013B1B0A20F8023B1B0C121F98
:1024000000F8013BF3D238BF121D521E24BF11F851
:10241000013B00F8013BF8D8704730B4002513E0C9
:1024200050F8042BD30744BFA9F101039A18091FE0
:10243000042942F8045BFAD213468C0744BF158086
:102440009B1CC90748BF1D7050F8041B0029E7D129
:1024500030BC70472DE9FE4F0500002D01D1012051
:1024600043E3DFF81C99D9F8004014F00C04DFF8BE
:102470001C89D8F8007017F003072878C00640F1CF
:10248000C680002C03D00C2C7AD1012F78D1DFF834
:10249000ECA8DAF80000800704D5A869002801D16B
:1024A000012022E3DAF80000000704D5DAF8000082
:1024B00010F0F00005E0DFF864090068000910F092
:1024C000F000296A88421ED2286A00F061FC0028C8
:1024D00001D0012009E3DAF8000050F00800CAF842
:1024E0000000DAF8001031F0F001286A0143CAF860
:1024F0000010DFF82C09016831F47F41EA6951EAE4
:10250000022101601FE0DAF8000050F00800CAF86C
:102510000000DAF8001031F0F001286A0143CAF82F
:102520000010DFF8FC08016831F47F41EA6951EAE4
:1025300002210160002C06D1286A00F029FC002845
:1025400001D00120D1E200F078FBDFF8D818D9F8EB
:102550000020C2F30312895C11F01F01C840DFF8AC
:1025600024180860DFF82008006800F073FC8DF87C
:1025700000009DF80000002849D09DF80000B4E25A
:10258000A86900282DD0DFF8F497D9F8000050F0A2
:102590000100C9F8000000F0A7FC0600D9F800000F
:1025A000800706D400F0A0FC801B0328F6D303208C
:1025B0009BE2D9F8000050F00800C9F80000D9F8F3
:1025C000001031F0F001286A0143C9F80010DFF86B
:1025D0005008016831F47F41EA6951EA0221016043
:1025E00015E0DFF89897D9F8000040084000C9F8D6
:1025F000000000F079FC0600D9F80000800706D53D
:1026000000F072FC801B0328F6D303206DE22878CB
:10261000C00754D5082C03D00C2C0BD1032F09D1A3
:10262000DFF858070068800349D56868002846D15C
:1026300001205AE26868B0F5803F06D1DFF83C0718
:10264000016851F48031016018E06868B0F5A02F8E
:102650000AD1DFF82807016851F480210160016880
:1026600051F48031016009E0DFF81007016831F4AE
:1026700080310160016831F48021016068680028C0
:102680000ED000F031FC0600DFF8F0060068800391
:1026900015D400F029FC801B6528F5D3032024E223
:1026A00000F022FC0600DFF8D4060068800306D59F
:1026B00000F01AFC801B6528F5D3032015E228786A
:1026C000800752D5042C03D00C2C15D1022F13D126
:1026D000DFF8A8060068400504D5E868002801D1A5
:1026E000012002E2DFF83807016831F0FE412A6973
:1026F00051EA0261016038E0E86800281FD0DFF885
:102700007C96D9F8000050F48070C9F8000000F001
:10271000EBFB0600D9F80000400506D400F0E4FB0E
:10272000801B0328F6D30320DFE1DFF8F4060168FD
:1027300031F0FE412A6951EA0261016015E0DFF8DB
:102740003C96D9F8000030F48070C9F8000000F021
:10275000CBFB0600D9F80000400506D500F0C4FB0D
:10276000801B0328F6D30320BFE1287800072ED56D
:102770006869002815D0DFF8A496D9F8000050F059
:102780000100C9F8000000F0AFFB0600D9F8000016
:1027900080071CD400F0A8FB801B0328F6D303207D
:1027A000A3E1DFF87896D9F8000040084000C9F8A6
:1027B000000000F099FB0600D9F80000800706D55C
:1027C00000F092FB801B0328F6D303208DE12878CC
:1027D000400740F181805FF00009DFF84CA6DAF88D
:1027E0000000C0000DD4DAF8000050F08050CAF8A4
:1027F0000000DAF8000010F08050019001980120EC
:102800008146DFF828B6DBF80000C00513D4DBF8FA
:10281000000050F48070CBF8000000F065FB06006B
:10282000DBF80000C00506D400F05EFB801B032827
:10283000F6D3032059E1A868012806D1DFF8F00596
:10284000016851F00101016017E0A86805280AD16C
:10285000DFF8DC05016851F004010160016851F006
:102860000101016009E0DFF8C80501684908490075
:102870000160016831F004010160A868002810D0EF
:1028800000F032FB0600DFF8A8050068800719D4C5
:1028900000F02AFB801B41F289318842F3D30320E8
:1028A00023E100F021FB0600DFF8840500688007C3
:1028B00008D500F019FB801B41F289318842F3D31F
:1028C000032012E14846C0B2012805D1DAF8000021
:1028D00030F08050CAF80000287880062ED5686A4B
:1028E000002815D0DFF84C95D9F8000050F0010011
:1028F000C9F8000000F0F8FA0600D9F800008007D7
:102900001CD400F0F1FA801B0328F6D30320ECE07E
:10291000DFF82095D9F8000040084000C9F8000011
:1029200000F0E2FA0600D9F80000800706D500F0B2
:10293000DBFA801B0328F6D30320D6E0A86A002820
:1029400000F0D280A86A022840F0A380D8F80000E6
:10295000070017F00300E96A884222D117F07000DF
:10296000296B491EB0EB011F1BD117F4FE40696BA8
:10297000B0EB012F15D117F07840A96BB0EBC16F08
:102980000FD117F4C000E96B4908491EB0EB415F55
:1029900007D117F0C060296C4908491EB0EB416FA0
:1029A00057D00C2C53D0DFF8D4A3DAF80000400144
:1029B00001D5012099E0DAF8000030F08070CAF803
:1029C000000000F091FA8146DAF80000800107D596
:1029D00000F08AFAB0EB09000328F5D3032084E065
:1029E000D8F80010DFF850040140E86A0143286B72
:1029F000401E51EA0011686B51EA0021E86B400863
:102A0000401E51EA4051286C4008401E51EA406186
:102A1000A86B51EAC061C8F80010DAF8000050F065
:102A20008070CAF80000D8F8000050F08070C8F834
:102A3000000000F059FA0600DAF80000800153D4D3
:102A400000F052FA801B0328F6D303204DE001204A
:102A50004BE0DFF82893D9F80000800144D4D9F87E
:102A6000000050F08070C9F80000D8F8000050F065
:102A70008070C8F8000000F037FA0600D9F80000AE
:102A8000800131D400F030FA801B0328F6D30320F4
:102A90002BE00C2C26D0DFF8E492D9F8000030F0BF
:102AA0008070C9F80000D9F80000000105D4D8F8FA
:102AB000000080088000C8F80000D8F80010DFF897
:102AC0007C030140C8F8001000F00EFA0600D9F8A7
:102AD0000000800108D500F007FA801B0328F6D318
:102AE000032002E0012000E00020BDE8FE8F2DE978
:102AF000F04104000D00002C01D101209BE0DFF823
:102B00004073386810F00700A8420BD23868C0083C
:102B1000C00028433860386810F00700A84201D090
:102B2000012088E02078C00742D56068032806D1DC
:102B3000DFF84802006880011CD401207BE0606857
:102B4000022806D1DFF834020068800312D4012085
:102B500071E06068002806D1DFF820020068800775
:102B600008D4012067E0DFF814020068400501D4B2
:102B7000012060E0DFF80882D8F800108908890099
:102B800060680143C8F8001000F0AEF90600D8F8FC
:102B9000000010F00C006168B0EB810F08D000F06D
:102BA000A3F9801B41F289318842F0D3032042E02F
:102BB0002078800706D572490A6832F0F002A068D2
:102BC00002430A60386810F0070085420BD238686B
:102BD000C008C00028433860386810F00700A842D9
:102BE00001D0012027E02078400706D564490A6813
:102BF00032F4E062E06802430A602078000707D5FB
:102C00005F48016831F46051226951EAC2010160F4
:102C100000F013F8DFF80C12594A1268C2F30312DD
:102C2000895C11F01F01C840564908605648006889
:102C300000F010F9C0B2BDE8F0812DE9F0410026A6
:102C400000204F49096811F00C01DFF840C1DCF8A1
:102C5000007017F00307002903D00C291AD1012FA7
:102C600018D1DFF818E1DEF800805FEA087806D4B2
:102C7000DFF8A8E1DEF800E0CEF3032E03E0DEF893
:102C800000E0CEF3031E6F4E56F82E6000290CD1E3
:102C900030000AE0042903D1DFF8ACE1704604E01B
:102CA000082902D1DFF8A4E170460C292DD1DCF807
:102CB00000E01EF0030E73469E46BEF1020F03D0E5
:102CC000BEF1030F03D005E0DFF87CE103E0DFF89D
:102CD0007CE100E0B646DCF80020C2F30212521C90
:102CE0001500DCF80020C2F3062202FB0EFEBEFB3C
:102CF000F5F2DCF800C0CCF3416C1CF1010C5FEA8A
:102D00004C0C6446B2FBF4FC6046BDE8F0811D4803
:102D10000068704780B5FFF7FAFF4D49184A1268FE
:102D2000C2F30222895C11F01F01C84002BD80B5C8
:102D3000FFF7EDFF4649124A1268C2F3C222895CCE
:102D400011F01F01C84002BD0F2202600C4A136837
:102D500013F003034360136813F0F00383601368F8
:102D600013F4E063C3601268D20812F4E0620261F7
:102D7000334A126812F007020A60704700100240DE
:102D80000810024008000020040000200C1002403F
:102D90007CB504000025244E3068C00003D500F047
:102DA000A9F801000FE0306850F0805030603068C2
:102DB00010F080500090009800F09CF801003068FE
:102DC00030F080503060B1F5007F09D1812C15D3EF
:102DD000A12C02D30220050010E0012005000DE027
:102DE000812C02D30320050008E0802C02D10220B0
:102DF000050003E0702C01D1012005001048026895
:102E0000D208D2002A430260006810F00700A842EE
:102E100001D0012000E0002076BD000094100240A7
:102E200004100240185B0008581002400070004077
:102E300090100240981002408C809D01FFFFEEFE32
:102E4000002002408C5900080024F40000127A008F
:102E5000605B00082DE9F04387B0040000250026E0
:102E600000222100372000F0F2F8372000F004F9AA
:102E70001948016851F020010160006810F020003D
:102E80000090009801A902A8FFF75EFFFFF742FF3C
:102E900007001248B7FBF0F8B8F10108DFF84090DE
:102EA0001048C9F8000040F2E730C9F80C00C9F832
:102EB00004800020C9F810000020C9F80800484626
:102EC00000F0ECF8002803D1484600F024F900E0B7
:102ED000012007B0BDE8F0835810024040420F00C7
:102EE000444D00200014004001480068704700BFB6
:102EF000A84E0020DFF88000006810F4C060704722
:102F00000200B2F5007F26D1DFF86C00036813F4ED
:102F1000C063B3F5007F2CD0036833F4C06353F46F
:102F200000730360DFF85400036832204343DFF886
:102F30005000B3FBF0F0401C0100DFF848000368CC
:102F40005B0503D5002901D0491EF6E7006840055E
:102F50000FD503200EE0DFF82000036813F4C063F0
:102F6000B3F5806F05D0036833F4C06353F4806316
:102F7000036000207047000000700040080000203F
:102F800040420F001470004010B410F00703DFF847
:102F9000F84022684FF6FF010A40DFF8F01051EACE
:102FA00003210A43226010BC7047DFF8DC00006890
:102FB000C0F3022070470000010049B2002909D483
:102FC000012210F01F018A40314903005BB25B0906
:102FD00041F82320704710B4020052B2002A05D4F1
:102FE0000A012C4B040064B21A5508E00A012A4B6E
:102FF000040064B214F00F04234403F8042C10BC42
:10300000704770B4030013F00704D4F107000528DB
:1030100001D3042001E0D4F10700251D072D01D2C2
:10302000002500E0E51E012616FA00F0401E0140D2
:10303000A94016FA05F56D1E2A401143080070BC20
:10304000704710B504002000FFF79EFF10BD2DE96A
:10305000F04104000D0016000027FFF7A6FF804690
:10306000320029004046FFF7CCFF0100200040B2AB
:10307000FFF7B1FFBDE8F08110B50400200040B2B9
:10308000FFF79AFF10BD00000CED00E00000FA050C
:1030900000E100E000E400E018ED00E010B50400FD
:1030A000002C01D1012035E094F83D00002805D125
:1030B000002084F83C00200000F074F9022084F81D
:1030C0003D00211D206800F02FF9012084F8480000
:1030D000012084F83E00012084F83F00012084F89C
:1030E0004000012084F84100012084F842000120C2
:1030F00084F84300012084F84400012084F845004E
:10310000012084F84600012084F84700012084F85B
:103110003D00002010BD010091F83D00012801D0C4
:1031200001202FE0022081F83D000868C06850F0BF
:1031300001000B68D8600868DFF84C30984208D06E
:103140000868B0F1804F04D00868DFF8403098423A
:1031500011D108688368DFF8380003401A00062A96
:103160000FD0B2F5803F0CD00868006850F0010025
:103170000B68186005E00868006850F001000B68F3
:103180001860002070470000002C01400040014002
:103190000700010010B504002068006980071AD5F7
:1031A0002068C068800716D57FF00200216808619A
:1031B000012020772068806910F0030F03D02000E1
:1031C00000F0F1F805E0200000F0EEF8200000F03B
:1031D000ECF8002020772068006940071AD52068A5
:1031E000C068400716D57FF00400216808610220FE
:1031F00020772068806910F4407F03D0200000F021
:10320000D2F805E0200000F0CFF8200000F0CDF863
:10321000002020772068006900071AD52068C06860
:10322000000716D57FF00800216808610420207788
:103230002068C06910F0030F03D0200000F0B3F83D
:1032400005E0200000F0B0F8200000F0AEF800200B
:10325000207720680069C0061AD52068C068C006BB
:1032600016D57FF0100021680861082020772068BB
:10327000C06910F4407F03D0200000F094F805E00E
:10328000200000F091F8200000F08FF80020207757
:1032900020680069C0070AD52068C068C00706D545
:1032A0007FF0010021680861200000F005F9206826
:1032B000006900060AD52068C068000606D57FF0C0
:1032C000800021680861200000F009F92068006989
:1032D000C0050AD52068C068000606D57FF4807056
:1032E00021680861200000F0FBF8206800694006B2
:1032F0000AD52068C068400606D57FF040002168E6
:103300000861200000F0EDF82068006980060AD509
:103310002068C068800606D57FF02000216808611B
:10332000200000F0DFF810BD10B40368DFF868403B
:10333000A04202D0B0F1804F03D133F070034A684D
:103340001343A0420AD0B0F1804F07D0DFF84C20E1
:10335000904203D0DFF84820904203D133F4407309
:10336000CA68134333F080034A69134303608A68D1
:10337000C2620A688262A04207D0DFF82020904231
:1033800003D0DFF81C20904201D10A6902630122B8
:10339000426110BC70470000002C01400040014019
:1033A00000440140704770477047704780B500F097
:1033B0009BF800F017F800F0A9F800F023F900F0EE
:1033C0009BF900F0C3F900F0E9F900F079FA00F098
:1033D00095FA00F0BAFAFDF7D2FE00F06FFBFDF7A8
:1033E000EEFEFEE700B5ADB005A8442100F0A8FB55
:1033F0006846142100F0A4FB16A85C2100F0A0FB95
:1034000000F0A2FB3148016831F01801016005208D
:1034100005905FF4803006900120079002200F9005
:103420000320109001201190142012900720139077
:10343000022014900220159005A8FFF70BF8002831
:1034400001D000F04BF80F200090032001900020E5
:103450000290002003900020049004216846FFF7AA
:1034600046FB002801D000F039F8194816900020DA
:103470001E9000201F90002020905FF040502A9066
:103480004FF480702C9016A800F066FB002801D045
:1034900000F024F84FF40070FFF732FD002801D04F
:1034A00000F01CF82DB000BD10B50400094884429E
:1034B00001D100F0A1FD10BD10B50400206806493F
:1034C000884201D100F0AEFD10BD00009010024016
:1034D00007400200104A0020001400407047704767
:1034E000704770477047000010B500240320FFF7B5
:1034F000A8FD0020FFF7AEFC002802D00120040048
:1035000001E000F09BFD2000C0B210BD10B586B0F8
:103510006846142100F014FB3848016851F004019A
:103520000160016811F0040105910599016851F0ED
:1035300080010160016811F0800105910599016821
:1035400051F001010160016811F001010591059937
:10355000016851F002010160006810F0020005905E
:103560000598002240F202715FF0904000F067FE83
:10357000012210215FF0904000F061FE204C0122FA
:103580000121200000F05BFE002245F218212000FE
:1035900000F055FE40F212700090012001900020D2
:1035A00002900020039069465FF0904000F062FDB9
:1035B00045F2192000900120019000200290002087
:1035C00003906946200000F055FD4FF4C050009074
:1035D000002001900020029069465FF0904000F0CA
:1035E00049FD4FF48070009000200190002002906F
:1035F0006946200000F03EFD06B010BD4C100240B0
:103600000004004810B586B06846182100F098FA0A
:10361000344C35482060002060600020A06000200D
:10362000E0600020206104206061002020760020FE
:1036300060760120E061002084F820000020A06274
:103640000020E062002084F8300000206063002049
:1036500084F83800200000F0B4FE002801D0FFF705
:103660003DFF2248009006200190002002907F201C
:10367000039004200490002005906946200000F08B
:10368000A3FF002801D0FFF729FF06B010BD10B539
:1036900086B0040001A8142100F052FA20681249F3
:1036A00088421CD11248016851F400510160016840
:1036B00011F4005100910099016851F0020101607C
:1036C000006810F0020000900098022001900B208A
:1036D00002900020039001A9064800F0CBFC06B040
:1036E00010BD0000104B00200000045000002143DA
:1036F0004C1002400004004880B511481149016097
:10370000002141607F218160FF21C16000210161B2
:1037100000214161002181610021C16101F0B4F902
:10372000002801D0FFF7DAFE01BD0168054A914289
:1037300004D105490A6852F400420A60704700004B
:10374000D04D0020002800409010024080B5544821
:10375000544901604FF482714160002181604FF44F
:10376000E061C16000210161002141614FF40071FD
:1037700081611021C16100210162002141620021AB
:1037800081620721C162002101630021416301F0D0
:1037900049FA002801D0FFF7A1FE01BD80B54248DB
:1037A000424901604FF4827141604FF400418160F1
:1037B0004FF4E061C16000210161002141614FF4DB
:1037C000007181611021C16100210162002141620B
:1037D000002181620721C162002101630021416350
:1037E00001F020FA002801D0FFF778FE01BD10B5E6
:1037F00086B004006846142100F0A2F92068294927
:10380000884223D12A48016851F480510160006840
:1038100010F48050059005982648016851F0010188
:103820000160006810F0010005900598E02000900C
:1038300002200190002002900320039005200490B4
:1038400069465FF0904000F015FC26E020681749BB
:10385000884222D11848016851F480410160006813
:1038600010F48040059005981248016851F002015B
:103870000160006810F00200059005984FF42040A8
:103880000090022001900020029003200390052068
:1038900004906946094800F0EDFB06B010BD000039
:1038A000744B002000300140D84B0020003800400D
:1038B000601002404C1002405810024000040048C2
:1038C00080B57448744901605FF4E13141600021C2
:1038D00081600021C160002101610C214161002152
:1038E00081610021C161002101620021416201F07A
:1038F00015FA002801D0FFF7F1FD01BD1CB500202D
:103900008DF80000654C664820605FF4E13060602F
:103910000020A0600020E060002020610C20606199
:103920000020A0610020E061002020620020606291
:10393000200001F0F3F9002801D0FFF7CFFD0122AC
:103940006946200001F027FA13BD80B55548564955
:1039500001605FF4E1314160002181600021C160BC
:10396000002101610C214161002181610021C161BF
:10397000002101620021416201F0D0F9002801D04C
:10398000FFF7ACFD01BD10B586B0040068461421F8
:1039900000F0D6F820684049884222D143480168A7
:1039A00051F480410160006810F480400590059852
:1039B0003F48016851F002010160006810F0020008
:1039C00005900598C02000900220019000200290F0
:1039D00003200390072004906946364800F04AFB14
:1039E00056E020682E4988422BD13348016851F4B3
:1039F00000310160006810F40030059005982C48F3
:103A0000016851F001010160006810F001000590AB
:103A100005980C20009002200190002002900320C5
:103A200003900720049069465FF0904000F022FB6D
:103A3000002200212620FFF70AFB2620FFF71CFBAF
:103A400026E020681849884222D11B48016851F4B9
:103A500080210160006810F48020059005981448CA
:103A6000016851F002010160006810F00200059049
:103A700005984FF4406000900220019000200290D1
:103A8000032003900720049069460A4800F0F2FAE8
:103A900006B010BD9049002000380140104A0020B7
:103AA00000440040904A002000480040601002405E
:103AB0004C100240000400485810024080B51C4AD7
:103AC00001214FF49670FDF721FC1A4908601A4A4B
:103AD00000210FF20D00FDF797FB1849086001BDAA
:103AE000F8B5ADF58D6D0400002501A840F26441E4
:103AF00000F026F80F4E5FF0FF3300226946306871
:103B0000FDF7C5FC0028F5D101AF9DF80000785500
:103B10006D1C4FF49673002269463068FDF7B7FCC0
:103B2000002804D19DF8000078556D1CF1E7E1E70D
:103B3000EC5A0008904E0020385A00088C4E0020A5
:103B4000002201F08BBD00000248016851F4807131
:103B500001607047007000402DE9F84F0500002714
:103B60005FF000082868000527D5686C00280DD094
:103B7000B0F5000F03D0B0F5400F0DD00DE0DFF829
:103B8000DC02016851F48031016008E00021281D49
:103B900000F06EF9070002E001E0012007003800A4
:103BA000C0B2002808D1DFF8C4120A6832F440021B
:103BB000686C02430A6000E0B846286880037AD542
:103BC0005FF00009DFF898A2DAF80000C0000DD419
:103BD000DAF8000050F08050CAF80000DAF800006F
:103BE00010F080500090009801208146DFF874B2F8
:103BF000DBF8000050F48070CBF80000FFF774F998
:103C00000600DBF80000C00506D4FFF76DF9801B45
:103C10000328F6D3032007003800C0B200283FD1A4
:103C2000DFF844B2DBF8000010F440700400002C10
:103C300015D0A86D844212D0DBF8000030F440703B
:103C40000400DBF8000050F48030CBF80000DBF813
:103C5000000030F48030CBF80000CBF80040E007E3
:103C60000FD5FFF741F90600DBF80000800708D404
:103C7000FFF73AF9801B41F289318842F4D30320DF
:103C800007003800C0B2002808D1DBF8001031F47A
:103C90004071A86D0143CBF8001002E0B84600E087
:103CA000B8464846C0B2012805D1DAF8000030F025
:103CB0008050CAF800002878C00707D5DFF8AC119B
:103CC0000A6892089200286A02430A6028788007EE
:103CD00007D5DFF898110A6832F00C02686A0243CF
:103CE0000A602878400707D5DFF880110A6832F0AB
:103CF0003002A86A02430A602878800607D5DFF8F8
:103D00006C110A6832F44062E86A02430A6028686B
:103D1000800507D5DFF854110A6832F44022E86BB9
:103D200002430A602868400507D5DFF840110A6899
:103D300032F44012286C02430A602878400607D506
:103D4000DFF828110A6832F44052286B02430A60F7
:103D50002878000607D5DFF814110A6832F44042CB
:103D6000686B02430A602868C00507D5DFF8FC10BD
:103D70000A6832F44032A86B02430A6028680003E4
:103D800020D5DFF8E8100A6832F04062A86C0243E0
:103D90000A60A86CB0F1006F06D1DFF8C0000168BE
:103DA00051F4801101600DE0A86CB0F1806F09D171
:103DB0000121281D00F05CF807003800C0B200287F
:103DC00000D0B8462868400320D5DFF8A0100A6864
:103DD00032F04062E86C02430A60E86CB0F1006FB8
:103DE00006D1DFF87800016851F4801101600DE020
:103DF000E86CB0F1806F09D10121281D00F038F87E
:103E000007003800C0B2002800D0B8462868400437
:103E100015D5DFF858100A6832F04052286D024379
:103E20000A60286DB0F1805F09D10221281D00F0E1
:103E30001FF807003800C0B2002800D0B846286834
:103E4000000407D5DFF824100A6832F08042686D5C
:103E500002430A604046C0B2BDE8F28F0C10024037
:103E6000581002400070004090100240881002403C
:103E70002DE9F04105000C0000275949086810F0B1
:103E8000030F12D0086810F003002A68904209D18D
:103E90002868002806D00868C0F30210401C696832
:103EA000884232D0012007002FE02868012804D082
:103EB0001BD303280FD007D317E04A4800688007B8
:103EC00001D40120070012E046480068400501D4F3
:103ED000012007000BE043480268920304D4006805
:103EE000400301D40120070001E001200700380051
:103EF000C0B2002809D10A6832F073022868024370
:103F00006868401E52EA00120A603800C0B20028F9
:103F100061D1DFF8D080D8F8000030F08060C8F8B8
:103F20000000FEF7E1FF0600D8F80000000106D50A
:103F3000FEF7DAFF801B0328F6D3032007003800C2
:103F4000C0B2002847D1002C0BD127490A68274866
:103F50000240A86852EA0022E86852EAC0620A6099
:103F60001CE0012C0DD120490A6821480240A868B4
:103F700052EA002228694008401E52EA40520A6074
:103F80000CE019490A681B480240A86852EA00225E
:103F900068694008401E52EA40620A60D8F8000092
:103FA00050F08060C8F80000FEF79EFF0600D8F8C9
:103FB0000000000106D4FEF797FF801B0328F6D30C
:103FC000032007003800C0B2002804D106490A685F
:103FD000A86902430A603800C0B2BDE8F081000061
:103FE0000C1002400010024010100240FF80FF073A
:103FF000FF809FFFFF80FFF980B500208DF8000053
:1040000001226946054800F0C6FE002300226946E9
:1040100003480068FDF7E2F901BD00BF104A002027
:10402000904E002003480168034A12788918016005
:10403000704700BFA84E00200C00002081B00B4844
:10404000016851F001010160006810F0010000906A
:1040500000980748016851F080510160006810F035
:1040600080500090009801B0704700BF601002407F
:1040700058100240F8B4030000250868E840002802
:1040800000F0DB8001260F6816FA05F007403A00C1
:10409000002A00F0D0804868012808D0486802282B
:1040A00005D04868112802D0486812281DD19F68A1
:1040B0005FF0030C2800C0B240001CFA00FC37EA95
:1040C0000C07D1F80CC02800C0B240001CFA00FC5C
:1040D0005CEA07079F605868AE40B0434E68C6F37D
:1040E0000016AE40304304005C60DE680327280001
:1040F000C0B2400017FA00F08643D1F808C028008B
:10410000C0B240001CFA00FC5CEA0606DE604868AB
:10411000022802D0486812281ED12800C00803EBEC
:104120008000046A5FF00F0C15F00700C0B2800039
:104130001CFA00FC34EA0C04D1F810C015F007009A
:10414000C0B280001CFA00FC5CEA040426002800CF
:10415000C00803EB800006621C682800C0B2400063
:104160008740BC430F7917F003072800C0B2400016
:1041700087403C431C604868C0005CD536480668F0
:1041800056F001060660006810F0010000900098EB
:10419000324F2800800857F820605FF00F0C15F0B0
:1041A0000300C0B280001CFA00FC36EA0C06B3F132
:1041B000904F01D1002414E02948834201D1012409
:1041C0000FE02848834201D102240AE026488342B6
:1041D00001D1032405E02548834201D1042400E0F5
:1041E000072415F00300C0B2800084402643280055
:1041F000800847F820601E4C206890434F68FF03FA
:1042000000D5104320601B4E346894434F68BF03B1
:1042100000D514433460184E306890434F68FF0255
:1042200000D510433060154E346894434F68BF0288
:1042300000D5144334606D1C1FE7F1BC70471300B8
:10424000DBB2002B03D00B009BB2836102E00B00BA
:104250009BB283627047000060100240080001407A
:104260000004004800080048000C00480010004806
:104270000004014004040140080401400C04014012
:10428000826832F47C120A4382607047826832F09E
:10429000E0720A4382607047806810F0E0707047F7
:1042A00070B410F1600515EB81052E68DFF8F0425F
:1042B000264012F0F84426431E4356F000462E6076
:1042C00070BC7047020012F1600010EB81000068C2
:1042D00010F0F840704710B410F1600313EB810345
:1042E0001C6824F0004414431C6010BC704770B478
:1042F00010F130040B009B0913F00C031C19256806
:104300001F2611F01F039E40B543C2F3846611F0CF
:104310001F039E403543256070BC704770B410F198
:1043200014030C00E40D14F00404E3181C680725C2
:104330000E00360D16F01F06B540AC430D002D0DD6
:1043400015F01F0512FA05F52C431C6070BC704770
:1043500030B4D0F8B0404B035B0B9C43DFF84432E1
:1043600012F01805EB400B405B035B0B1C43C0F8DD
:10437000B04030BC70478268DFF82C120A4082607F
:1043800070478068400F10F0010070478268DFF8C6
:104390001C120A4052F08052826070478068000F01
:1043A00010F001007047806810F0010070478068CD
:1043B000800810F0010070478068C00810F001000C
:1043C00070472DE9F84304005FF0000800200090DA
:1043D000002C01D10120E0E02069002802D094F8EF
:1043E00020000128606D002807D12000FFF74FF959
:1043F0000020A065002084F850002068FFF7C1FF6E
:10440000002802D02068FFF7B6FF2068FFF7C6FF3C
:10441000002811D12068FFF7B9FFDFF89401006888
:10442000DFF89011B0FBF1F000900098002803D065
:104430000098401E0090F8E72068FFF7AFFF0028C3
:1044400009D1606D50F010006065A06D50F0010062
:10445000A065012080462068FFF7A9FF0500606D78
:10446000C00600F19280002D40F08F80606D30F426
:10447000807050F0020060652068FFF794FF00280C
:104480000AD1DFF83401FFF78EFF002804D16168FC
:10449000DFF82801FFF7F4FE607E616B51EA4031DE
:1044A000E0680143A068014394F8200051EA00410C
:1044B000894694F82000012803D1606A401E59EA19
:1044C0004049A06A002806D0A16A11F47071E06A20
:1044D000014351EA09092068C168DFF8E40001409E
:1044E00059EA01012068C1602068FFF760FF0600FB
:1044F0002068FFF761FF070057EA060000282AD16D
:10450000207E94F83010490051EA803189462068B5
:10451000C168DFF8B000014059EA01012068C160BC
:1045200094F83800012810D1206801696FF38A01DE
:10453000E06B0143206C0143606C0143A06C0143BC
:1045400051F001012068016105E020680069400820
:104550004000216808612069012809D12068006BAA
:1045600000090001E169491E08432168086305E06C
:104570002068006B0009000121680863606D30F05D
:10458000020050F00100606505E0606D50F0100021
:104590006065012080464046C0B2BDE8F28300005D
:1045A00000F0FF03FFFF0700C0FFFF5FC0FFFF7FBA
:1045B00008000020400D03000000045000030450D8
:1045C00007C0F0FFFDBFFFFF2DE9F84F8046894689
:1045D0005FF0000A00200090DFF888B4D9F80C00E2
:1045E0005845FFD198F85000012801D1022035E24A
:1045F000012088F85000D8F80000FFF7D8FE002806
:1046000040F01F82D9F8040006281ED2D9F8040011
:10461000022806D016D304280BD006D305280CD0C8
:1046200010E00C20C9F804000FE01220C9F80400C3
:104630000BE01820C9F8040007E04FF48070C9F8B7
:10464000040002E00620C9F80400D9F80020D9F8D7
:104650000410D8F80000FFF74AFED8F80000FFF772
:10466000A6FE0600D8F80000FFF7A6FE070057EAEE
:104670000600002840F0DD80D9F80820D9F80010A5
:10468000D8F80000FFF74AFED9F81410D8F8000057
:10469000C068C0F3C100C0B2400081400C00D9F82E
:1046A0001000042809D02300D9F80020D9F81010F0
:1046B000D8F80000FFF7F4FDBBE00021D8F80000B7
:1046C000FFF700FE400307D10021D8F80000FFF7F4
:1046D000F9FDC0F3846008E00021D8F80000FFF77E
:1046E000F1FD90FAA0F0B0FA80F0D9F8001049037B
:1046F00004D1D9F80010C1F3846105E0D9F80010A5
:1047000091FAA1F1B1FA81F1884205D1002200218C
:10471000D8F80000FFF7DFFD0121D8F80000FFF70F
:10472000D1FD400307D10121D8F80000FFF7CAFDF1
:10473000C0F3846008E00121D8F80000FFF7C2FD53
:1047400090FAA0F0B0FA80F0D9F80010490304D133
:10475000D9F80010C1F3846105E0D9F8001091FA8E
:10476000A1F1B1FA81F1884205D100220121D8F8E6
:104770000000FFF7B0FD0221D8F80000FFF7A2FD0E
:10478000400307D10221D8F80000FFF79BFDC0F3DA
:10479000846008E00221D8F80000FFF793FD90FA4A
:1047A000A0F0B0FA80F0D9F80010490304D1D9F88C
:1047B0000010C1F3846105E0D9F8001091FAA1F16D
:1047C000B1FA81F1884205D100220221D8F8000017
:1047D000FFF781FD0321D8F80000FFF773FD4003C8
:1047E00007D10321D8F80000FFF76CFDC0F3846007
:1047F00008E00321D8F80000FFF764FD90FAA0F06C
:10480000B0FA80F0D9F80010490304D1D9F80010AB
:10481000C1F3846105E0D9F8001091FAA1F1B1FA71
:1048200081F1884205D100220321D8F80000FFF76A
:1048300052FDD8F80000FFF7B6FD002840F0A9802F
:10484000D9F80C20D9F80010D8F80000FFF780FD47
:10485000D9F80C00584540F09C80D9F8000040037E
:1048600004D1D9F80000C0F3846005E0D9F8000055
:1048700090FAA0F0B0FA80F0401C10F01F000A2857
:104880003FD2D9F80000400304D1D9F80000C0F3AA
:10489000846105E0D9F8000090FAA0F0B0FA80F148
:1048A000D9F80000400304D1D9F80000C0F38460B7
:1048B00005E0D9F8000090FAA0F0B0FA80F0D9F83D
:1048C0000020520304D1D9F80020C2F3846205E02D
:1048D000D9F8002092FAA2F2B2FA82F2491C8906B3
:1048E00011F0F8410123401C10F01F0013FA00F0F2
:1048F0000143521C12F01F020320424351EA0251AD
:1049000041E0D9F80000400304D1D9F80000C0F319
:10491000846105E0D9F8000090FAA0F0B0FA80F1C7
:10492000D9F80000400304D1D9F80000C0F3846036
:1049300005E0D9F8000090FAA0F0B0FA80F0D9F8BC
:104940000020520304D1D9F80020C2F3846205E0AC
:10495000D9F8002092FAA2F2B2FA82F2491C890632
:1049600011F0F8410123401C10F01F0013FA00F071
:104970000143521C12F01F020A3A0320424351EA3B
:10498000025151F00071D9F80820D8F80000FFF763
:10499000C5FCD9F80000DFF8D010084259D0DFF884
:1049A000CCB05846FFF778FC0500D9F80000DFF8D6
:1049B000C01088421DD128021BD4D8F80000DFF8AF
:1049C000B410884245D155F400015846FFF75EFC0B
:1049D000DFF8A4000068DFF8A410B0FBF1F10C20B0
:1049E000414300910098002833D00098401E009069
:1049F000F8E7D9F80000DFF8881088420DD1E80107
:104A00000BD4D8F80000DFF86C10884221D155F0A3
:104A100080715846FFF73AFC1BE0D9F80000DFF838
:104A20006410884215D1680213D4D8F80000DFF86A
:104A3000441088420DD155F480015846FFF726FCFA
:104A400007E0D8F8540050F02000C8F854000120C6
:104A50008246002088F850005046C0B2BDE8F28F70
:104A60000000000000007F400000088000030450A8
:104A7000000052C70000045008000020400D030051
:104A8000000084CB0100008038B504000125002C13
:104A900051D094F82100002805D1002084F820008E
:104AA0002000FEF742FE022084F82100CA2021687F
:104AB0004862532021684862200000F059F8050040
:104AC0002800C0B2002836D120688168DFF848018C
:104AD0000140206881602068816862682069024323
:104AE000A0690243114320688160E0682168086181
:104AF00020680069A16850EA01402168086120002F
:104B000000F05CF805002800C0B2002813D120682E
:104B1000C06C800880002168C8642068C16CE269AC
:104B20006069024311432068C164FF202168486224
:104B3000012084F821002800C0B232BD38B504003D
:104B40002068C06830F0A0002168C860FEF7CCF98A
:104B500005002068C068800608D4FEF7C5F9401B30
:104B600040F2E9318842F4D3032000E0002032BD56
:104B700070B5040000262068C06840061BD45FF0B2
:104B8000FF302168C860FEF7AFF905002068C068F3
:104B9000400610D43000C0B203280CD0FEF7A4F9B0
:104BA000401B40F2E9318842F0D303200600032085
:104BB00084F82100EAE73000C0B270BD70B504008F
:104BC00000251648016831F080010160144E3068FC
:104BD00080060AD42000FFF7B1FF002817D0032079
:104BE00084F821000320050011E0306830F0200037
:104BF00030602000FFF7A2FF002804D0032084F8D3
:104C0000210003200500306850F0200030602800AB
:104C1000C0B270BD00000000BFFF8FFF0C28004035
:104C20000828004010B50400002C01D1012074E0D8
:104C3000606A002806D16068B0F5827F06D0002047
:104C4000E06103E000202061002060610020A0629C
:104C500094F85D00002805D1002084F85C00200055
:104C6000FEF7C5FD022084F85D002068006830F082
:104C7000400021680860E06840F20171884201D379
:104C8000002101E04FF48051E068B0F5706F05D06D
:104C9000E068B0F5E06F01D00020A062606810F419
:104CA0008270A26812F404421043227C12F00202C5
:104CB0001043227D12F001021043A26912F4007227
:104CC0001043227F12F03802104394F8202012F093
:104CD00080021043A26A12F400521043226810604E
:104CE000A269120C12F0040294F8240010F01000D3
:104CF000024394F8340010F008000243E06810F416
:104D00007060024311F4805002432068426000202A
:104D10002066012084F85D00002010BD10B504005D
:104D2000002C01D1012035E0A0690028FFD1606F7F
:104D3000002805D1002084F870002000FEF723FE33
:104D400024206067206800684008400021680860EF
:104D5000200000F06FF9012801D101201AE0606AFB
:104D6000002802D0200000F0E5FA2068406830F406
:104D70009040216848602068806830F02A002168EF
:104D800088602068006850F00100216808602000F9
:104D900000F03DFB10BD10B40300986F20286AD1CD
:104DA000002903D0100080B2002801D1012063E067
:104DB00093F87000012801D102205DE0012083F802
:104DC00070005965A3F85820A3F85A2000201866EF
:104DD0009868B0F5805F0BD11869002804D140F2C3
:104DE000FF10A3F85C0023E0FF20A3F85C001FE0A5
:104DF000986800280AD11869002803D1FF20A3F879
:104E00005C0015E07F20A3F85C0011E09868B0F129
:104E1000805F0AD11869002803D17F20A3F85C00C5
:104E200006E03F20A3F85C0002E00020A3F85C004D
:104E30000020D867222098671868806850F0010029
:104E40001C68A0609868B0F5805F06D118690028DA
:104E500003D1DFF8D801186602E0DFF8D401186644
:104E6000002083F870001868006850F490701C6887
:104E70002060002000E0022010BC70472DE9F843BC
:104E800006003068C7693068D0F800803068D0F814
:104E9000089040F60F043C40002C0BD1B80609D511
:104EA0005FEA886006D5306E002802D03000316E8F
:104EB0008847B9E0002C00F095805FEAC97005D4FE
:104EC000DFF8500418EA000F00F08C8017F00100A2
:104ED000C0B2002809D05FEAC85006D50120316869
:104EE0000862F06F50F00100F067B8070BD519F0B9
:104EF0000100C0B2002806D0022031680862F06FBD
:104F000050F00400F06778070BD519F00100C0B22B
:104F1000002806D0042031680862F06F50F00200CB
:104F2000F06738070ED55FEA886004D419F00100F5
:104F3000C0B2002806D0082031680862F06F50F037
:104F40000800F06738050AD55FEA481007D54FF426
:104F5000006031680862F06F50F02000F067F06F79
:104F600000283ED0B80608D55FEA886005D5306EC7
:104F7000002802D03000316E8847F06F050030689D
:104F80008068400602D415F0280F25D0300000F0CC
:104F9000CAFA3068806840061AD53068806830F0F8
:104FA000400031688860F06E00280DD00FF29950F3
:104FB000F16E8863F06E00F06BFB002811D0F06E8C
:104FC000F16E896B88470CE0300000F090FB08E040
:104FD000300000F08CFB04E0300000F088FB002083
:104FE000F06721E0F8020AD55FEA492007D55FF4AF
:104FF000801031680862300000F07AFB14E0380657
:1050000009D55FEA086006D5706E002802D030002E
:10501000716E884708E0780606D55FEA486003D5D8
:10502000300000F09FFAFFE7BDE8F183EF5500087C
:10503000855500082DE9F04704000026DFF8D81256
:1050400020688842FFD0A268206902436069024359
:10505000E069024320680368DFF8C002034013439D
:10506000206803602068436833F44053E0680343DA
:1050700020684360D4F818802068884202D0206AF3
:1050800050EA08082068806830F4306058EA000070
:10509000226890602068A24A904215D1A148006819
:1050A00010F00300002805D0022805D006D30328FD
:1050B00006D007E001275BE0022759E0042757E00C
:1050C000082755E0102753E02068974A904216D1F0
:1050D0009448006810F00C00002806D0042808D07E
:1050E000082804D00C2806D007E0002740E002275B
:1050F0003EE004273CE008273AE0102738E020682B
:105100008A4A904216D18748006810F03000002883
:1051100006D0102808D0202804D0302806D007E078
:10512000002725E0022723E0042721E008271FE0CD
:1051300010271DE02068884219D17A48006810F4D1
:105140004060002809D0B0F5806F0AD0B0F5006F3C
:1051500005D0B0F5406F06D007E0002708E0022731
:1051600006E0042704E0082702E0102700E01027EB
:105170002068884246D13800C0B2002806D00228F4
:1051800008D0042809D008280BD00DE0FDF7C2FD97
:1051900081460DE0DFF898910AE0FDF74EFD81466B
:1051A00006E04FF4004903E05FF00009012006002B
:1051B000B9F1000F00F0A5806168032041438945E3
:1051C00005D361684FF480504143494502D2012024
:1051D000060096E04FF48072606840080021E2FB10
:1051E00009016268002300F085FA0500B5F5407FEB
:1051F00005D3B5F5801F02D22068C56081E001208B
:1052000006007EE0E069B0F5004F42D13800C0B240
:10521000002808D001280AD002280CD004280DD07C
:1052200008280FD011E0FDF775FD814611E0FDF76C
:105230007EFD81460DE0DFF8F8900AE0FDF7FDFC09
:10524000814606E04FF4004903E05FF000090120C9
:105250000600B9F1000F54D06068400810EB490017
:105260006168B0FBF1F080B20500102D0ED3B5F5EA
:10527000803F0BD24FF6F0712940C5F34200014345
:105280008A46504680B22168C8603AE00120060094
:1052900037E03800C0B2002808D001280AD0022820
:1052A0000CD004280DD008280FD011E0FDF732FDF6
:1052B000814611E0FDF73BFD81460DE0DFF870907F
:1052C0000AE0FDF7BAFC814606E04FF4004903E02E
:1052D0005FF0000901200600B9F1000F11D06068ED
:1052E00019EB50006168B0FBF1F080B20500102DA1
:1052F00005D3B5F5803F02D22068C56001E00120EA
:10530000060000202066002060663000C0B2BDE8C4
:10531000F08700002001000400800040F369FFEFE7
:10532000003801408810024000440040004800401E
:105330000024F40090F82410C90707D501684A68D2
:1053400032F40032816A0A4301684A6090F82410FE
:10535000890707D501684A6832F48032C16A0A4376
:1053600001684A6090F82410490707D501684A6827
:1053700032F48022016B0A4301684A6090F82410DD
:10538000090707D501684A6832F40042416B0A43B5
:1053900001684A6090F82410C90607D501688A6838
:1053A00032F48052816B0A4301688A6090F82410BD
:1053B000890607D501688A6832F40052C16B0A4336
:1053C00001688A6090F82410490613D501684A687C
:1053D00032F48012016C0A4301684A60016CB1F535
:1053E000801F07D101684A6832F4C002416C0A4349
:1053F00001684A6090F82410090607D501684A68D8
:1054000032F40022816C0A4301684A60704738B563
:1054100004000020E067FDF767FD050020680068D4
:1054200000070DD57FF07E4000902B0000225FF436
:105430000011200000F01FF8002801D0032019E01F
:105440002068006840070DD57FF07E4000902B005B
:1054500000225FF48001200000F00DF8002801D048
:10546000032007E0202060672020A067002084F848
:105470007000002032BD2DE9F04105000E0090467D
:105480001F00069C2868C0693040B04201D101204D
:1054900000E000204146C9B2884241D114F1010F19
:1054A000F0D0FDF721FDC01B844201D3002C14D1A4
:1054B0002868006830F4D07029680860286880681F
:1054C0004008400029688860202068672020A8677D
:1054D000002085F87000032023E02868006840075A
:1054E000D0D52868C0690005CCD54FF40060296884
:1054F00008622868006830F4D0702968086028685D
:105500008068400840002968886020206867202063
:10551000A8672020E867002085F87000032000E0DD
:105520000020BDE8F0810168096831F490710268DB
:10553000116001688968490849000268916020216A
:10554000816700210166704738B50400A56A002014
:10555000A5F85A000020A5F85200280000F0C7F86E
:1055600031BD000010B504002068006830F0400034
:10557000216808602020606700206066200000F03D
:10558000D1F910BD70B50500B5F85C60A86F222890
:1055900026D12868808C040016EA0400696D087022
:1055A000686D401C6865B5F85A00401EA5F85A00A1
:1055B000B5F85A00002819D12868006830F49070B6
:1055C0002968086028688068400840002968886069
:1055D0002020A867002028662800FDF765FF05E069
:1055E0002868008B50F008002968088370BDF8B562
:1055F0000500B5F85C70A86F222827D12868808C38
:105600000400686D060017EA04003080686D801C95
:105610006865B5F85A00401EA5F85A00B5F85A005A
:10562000002819D12868006830F490702968086053
:105630002868806840084000296888602020A867A2
:10564000002028662800FDF72FFF05E02868008B62
:1056500050F0080029680883F1BD000000B500BFC4
:10566000130096469446103928BFA0E80C50FAD88B
:105670005FEA417C28BF0CC048BF40F8042BC90733
:1056800028BF20F8022B48BF00F8012B00BD000006
:1056900038B50400002594F82500022804D0042021
:1056A000E063012005001FE02068006830F00E0074
:1056B0002168086020680068400840002168086090
:1056C000012094F8441011F01C018840216C4860BE
:1056D000012084F82500002084F82400A06B002815
:1056E00002D02000A16B88472800C0B232BD7047AD
:1056F00070470000BBBBE1B1B2F5803F80F07E8017
:10570000022A1ED98C46B1FBF2F102FB11C31B0425
:1057100043EA1043B3FBF2FC02FB1C3380B240EAC5
:105720000343B3FBF2F002FB103240EA0C400023CB
:105730007047022A05D98446B0FBF2F002FB10C282
:1057400070474AB105D100F0010249085FEA300014
:10575000704700220023704700F0E6B80B000200FB
:10576000002100207047904271EB030CF6D3B3F593
:10577000803F2FD2F0B5B3FA83F7B1FA81F4A7F1E5
:105780000F0E3D1B5340CEF1200602FA0EF2F341FC
:105790005340B5F10F0746D80F3C2C444140C4F1AB
:1057A0002006A040F1414140B1FBF3F603FB161186
:1057B000A2FB0645001BA94102D2761E8018594162
:1057C00080EA010221FA0EF362FA0EF200215A4039
:1057D0003046F0BD30B4B1FBF3FC03FB1C11A2FB5F
:1057E0000C45001BA94103D2ACF1010C80185941B2
:1057F00030BC02460B46604600217047B2F1807F04
:1058000065D3F0B5B2FA82F7B1FA81F4C7F10F06A9
:105810003D1B22FA06F307F1110EF24120355A40E2
:10582000B5F10F07B8D94140C4F12006A040F141BD
:105830004140B1FBF3FC03FB1C11A2FB0C45001B18
:10584000A94103D2BCF1010C801859410F2F12D38A
:105850000F3FC90341EA5041B1FBF3F603FB1611B8
:10586000A2FB0645D4EBC030A94102D2761E8018B7
:10587000594146EACC3C07B34140C7F12006B84045
:10588000F1414140B1FBF3F603FB1611A2FB0645C3
:10589000001BA94102D2761E8018594180EA0102FC
:1058A00021FA0EF3C7F1200462FA0EF20CFA07F0A7
:1058B0005A402CFA04F13043F0BD80EA010221FA8B
:1058C0000EF3002162FA0EF260465A40F0BD8C469B
:1058D000B1FBF2F102FB11C31B0243EA1063B3FBFD
:1058E000F2FC02FB1C331B024CEA002043EA10636B
:1058F000B3FBF2FC02FB1C331B024CEA002043EA20
:105900001063B3FBF2FC02FB1C331B024CEA0020C9
:1059100043EA1063B3FBF2FC02FB1C324CEA0020AA
:10592000002370477047000070470000104801686E
:1059300051F4700101600F49086850F001000860DF
:1059400000200D4A10600A680C4802400A604FF4BB
:1059500080500B4A1060086830F4802008600020F6
:10596000084908605FF00060074908607047000060
:1059700088ED00E00010024008100240FFFFF6EA48
:105980000C1002401810024008ED00E0A086010053
:10599000400D0300801A060000350C0040420F0045
:1059A00080841E0000093D0000127A000024F400EB
:1059B00000366E010048E801006CDC0230B450F89B
:1059C000041B79B10268436802440830DC0744BF15
:1059D000A9F10104E31852F8045B43F8045B091FC2
:1059E000F9D1ECE730BC70477047FEE7FEE7FEE711
:1059F000FEE7704780B50448FFF740FA01BD80B567
:105A00000248FDF7C7FB01BD104A0020444D0020AD
:105A100010B5074979441831064C7C44163404E02B
:105A20000A68081D114488470146A142F8D110BDFB
:105A30005000000070000000485B000800000000FB
:105A40000000000000000000000000000004000052
:105A50002800000000000000000000004EF6885101
:105A6000CEF20001086840F470000860BFF34F8F69
:105A7000BFF36F8F4FF00070E1EE100A7047000027
:105A80009BC9FFFFF04E0000100000200000000046
:105A90002DFFFFFF10000000A0000000000000200C
:105AA0000000000000F00DF8002801D0FFF7B0FF63
:105AB000AFF300800020AFF30080FDF777FC00F02B
:105AC00002F80120704700F001B800000746384690
:105AD00000F002F8FBE7000080B5AFF30080024A57
