:020000040800F2
:1000000068980020E1CA0008DDC40008DFC40008C9
:10001000E1C40008E3C40008E5C4000800000000D3
:10002000000000000000000000000000D5A700084C
:10003000E7C40008000000007DA70008459D0008F7
:100040004DCB000851CB000855CB000859CB000818
:100050005DCB000861CB000865CB000869CB0008C8
:100060006DCB000871CB000875CB000879CB000878
:100070007DCB000881CB000885CB000889CB000828
:100080008DCB000891CB000895CB000899CB0008D8
:100090009DCB0008A1CB0008A5CB0008A9CB000888
:1000A000ADCB0008B1CB0008B5CB0008B9CB000838
:1000B000BDCB00080000000000000000C1CB00081C
:1000C000C5CB0008C9CB0008CDCB0008D1CB0008B8
:1000D000D5CB0008D9CB0008E9C40008DDCB000867
:1000E000E1CB0008E5CB00080000000000000000A4
:1000F0000000000000000000000000000000000000
:1001000000000000E9CB000800000000EDCB000873
:100110000000000000000000F1CB000807C5000847
:10012000F5CB0008F9CB0008FDCB000801CC000896
:1001300005CC0008000000000000000000000000E6
:1001400009CC00080DCC000811CC0008000000000C
:1001500015CC000819CC00081DCC000821CC0008E3
:1001600025CC000829CC00082DCC00080000000098
:1001700031CC000835CC0008000000000000000071
:1001800039CC00083DCC000841CC000830B4040054
:10019000080000212500EDB2002D06D10500EDB2CA
:1001A0007F2D02DAC0B220388EE00500EDB27F2D3F
:1001B00001D1080088E02500EDB2A13D092D0DD246
:1001C0000500EDB2A12D09DB2500EDB25E214D4306
:1001D00055FA80F1DFF82C51691816E02500EDB2D0
:1001E000A83D022D11D20500EDB2A12D0DDA0100BE
:1001F000C9B2802900DB401E2500EDB260214D43CD
:1002000055FA80F1DFF8005169182500EDB2B03DD4
:10021000482D0DD20500EDB2A12D09DBE4B25E211F
:10022000C0B201FB0404DFF8E400041921004AE035
:100230002500EDB2813D202D0DD20100C9B28029EB
:1002400000DB401EE4B2BE21C0B201FB0404B4F5E1
:100250008344210037E02500EDB2AA2D11DB050013
:10026000EDB2A12D0DDA0100C9B2802900DB401EDC
:10027000E4B26021C0B201FB0404A4F6C214210060
:1002800021E02500EDB2812D0DD10500EDB2392D13
:1002900009DBD2B20A20DBB200FB023202F598423F
:1002A000993211000FE0E4B2822C0CD1C0B240F2BE
:1002B000EC44D2B20A214A4304FB002050FA83F1F5
:1002C000DFF84C004118080030BC704738B5040016
:1002D000080011001D00049AD21DD20805FB02F58A
:1002E00000230022C9B2C0B2FFF750FFDFF824108C
:1002F000096805FB001022002900C9B203F0F8F8D4
:1003000031BD000041C4FFFF0EC4FFFFCDC2FFFF9F
:100310004565FFFF34940020F0B585B06846142190
:1003200003F056F9DFF87C4B6A461421A0685C3074
:1003300003F0DEF8DFF8703B6D46E878A978090431
:1003400051EA0061687851EA00219DF800000143FC
:1003500019609DF807009DF80610090451EA006134
:100360009DF8050051EA002128790143DFF83C0B94
:100370000160DFF83C7B9DF80B009DF80A10090432
:1003800051EA00619DF8090051EA0021287A0143F1
:1003900039609DF80F009DF80E10090451EA0061C4
:1003A0009DF80D0051EA0021287B0143DFF8040B82
:1003B0000160DFF8046B9DF813009DF8121009042A
:1003C00051EA00619DF8110051EA0021287C0143A7
:1003D000316000206061002020611868002813D07F
:1003E0006A4604211868A368181803F081F8E878B1
:1003F000A978090451EA0061687851EA00219DF862
:1004000000000143616115E03868002812D06A4697
:1004100004213868A368181803F06AF8E878A97806
:10042000090451EA0061687851EA00219DF8000052
:1004300001432161616920694118A1616A46022175
:100440003068A368181803F053F868789DF8001016
:1004500051EA0021A18105B0F0BD000030B40021B7
:1004600010E08A00032303FB01F3845CC45400EB17
:100470000204647800EB03056C7002449278034434
:100480009A70491C1829ECD330BC7047F0B406E0D0
:100490001C78641C1C7004681368E41A0460036808
:1004A000012B09DBDFF8143A1C78DFF8145A2D7899
:1004B000AC42EDD1F0BC7047DFF8083A1C78DFF8A9
:1004C000085A2D78AC421BD0DFF8004A25682D78F9
:1004D0006D1C26683570DFF8E4592D78266827688A
:1004E0003F78F5552568DFF8E869367835442560AA
:1004F0001C78641C1C7004680B681C190460CEE72F
:10050000D8E70000F0B406E01C78641E1C70046894
:1005100013681C1904600368012B09DADFF89C39A1
:100520001C78DFF89C592D78AC42EDD1F0BC7047B7
:10053000DFF890391C78DFF890592D78AC421BD049
:10054000DFF8884925682D786D1C26683570DFF83E
:100550006C592D78266827683F78F5552568DFF8AF
:1005600070693678354425601C78641C1C700468FA
:100570000B681C190460CEE7D8E70000F0B406E071
:100580001C78641E1C70046813681C1904600368DE
:10059000012B09DBDFF824391C78DFF824592D788A
:1005A000AC42EDD1F0BC7047DFF818391C78DFF8A9
:1005B00018592D78AC4226D0DFF810492568DFF8AD
:1005C00010693678764235442560DFF80859266888
:1005D0002F78F65D761C276895F800C007F80C6048
:1005E00026682F7824682D78645D54FA87F4DFF844
:1005F000CC582D7835551C78641E1C7004680B6827
:10060000E41A0460C3E7CDE7F0B406E01C78641C8C
:100610001C7004681368E41A04600368012B09DA8B
:10062000DFF898381C78DFF898582D78AC42EDD177
:10063000F0BC7047DFF88C381C78DFF88C582D78C8
:10064000AC4226D0DFF884482568DFF88468367825
:10065000764235442560DFF87C5826682F78F65DB1
:10066000761C276895F800C007F80C6026682F787C
:1006700024682D78645D54FA87F4DFF840582D78AB
:1006800035551C78641E1C7004680B68E41A0460FD
:10069000C3E7CDE7F0B42DE0DFF83848DFF838588D
:1006A0002E6827783E4416F8016C761C2F6894F863
:1006B00000C0674407F8016C2E682778D5F800C0A1
:1006C0002478644414F8014C54FA87F43444DFF875
:1006D000F467367804F8016C2C68DFF8F467367834
:1006E0003444A41E2C601C78641C1C7004681368BD
:1006F000E41A04600368012B09DBDFF8C0371C78BB
:10070000DFF8BC572D78AC42C6D1F0BC7047DFF89B
:10071000B4371C78DFF8B0572D78AC4207D01C787E
:10072000641C1C7004680B681C190460E2E7ECE7A9
:1007300070B41CE0DFF8A0371D68DFF894673678E6
:10074000B61E764235441D6025786D1E25701C68E6
:100750002478641C1D682C70DFF8684724781D68B5
:100760001B681B78EC54046813681C190460036848
:10077000012B09DADFF844472378DFF844572D7856
:10078000AB42D7D170BC7047DFF838371C78DFF840
:1007900038572D78AC4207D01C78641C1C70046854
:1007A0000B681C190460E2E7ECE770B41CE0DFF8AA
:1007B00028371D68DFF818673678B61E764235444C
:1007C0001D6025786D1E25701C682478641C1D68CA
:1007D0002C70DFF8F04624781D681B681B78EC54F9
:1007E000046813681C1904600368012B09DBDFF837
:1007F000CC462378DFF8C8562D78AB42D7D170BCF1
:100800007047DFF8C0361C78DFF8BC562D78AC4254
:1008100007D01C78641E1C7004680B68E41A04601E
:10082000E2E7ECE7F0B42CE0DFF8A846DFF8A856E2
:100830002E6827783E4416F8016C761C2F6894F8D1
:1008400000C0674407F8016C2E682778D5F800C00F
:100850002478644414F8014C54FA87F43444DFF8E3
:100860006466367804F8016C2C68DFF864663678C4
:1008700034442C601C78641C1C7004681368E41AEF
:1008800004600368012B09DADFF830361C78DFF8E2
:1008900030562D78AC42C7D1F0BC7047DFF8243613
:1008A0001C78DFF824562D78AC4207D01C78641EE3
:1008B0001C7004680B68E41A0460E2E7ECE70000CF
:1008C0002DE9F84F88B0B0F90060801CB1F90070D4
:1008D000891CB0F90040801C0490B1F90050881CBC
:1008E0000390300000B2002800D50026DFF8B405E0
:1008F0008088310009B2884203DADFF8A805B0F930
:100900000460380000B2002800D50027DFF8940505
:100910008088390009B2884203DADFF88805B0F927
:100920000470200000B2002800D50024DFF8740510
:100930008088210009B2884203DADFF86805B0F93F
:100940000440280000B2002800D50025DFF8540537
:100950008088290009B2884203DADFF84805B0F937
:1009600004501088401EADF8080075E0190009B267
:1009700040F20310014040F2011081420DDBDFF82C
:1009800044050178491C0170DEF8000098F8001059
:100990000844CEF800001AF1400ABDF9061089019A
:1009A0000691BDF9041089010591BDF90A103800BE
:1009B00000B2091A01FA8AF1BDF9060041430FFAA3
:1009C0008CFC300000B2BCEB000C0CFA89F2BDF9D3
:1009D000040000FB1211079105AA06A907A8DFF879
:1009E000A4CB1BB2C3F342035CF8233098472EE03C
:1009F000DEF8000098F8002052421044CEF80000C3
:100A0000DFF8D004DEF800200378D25C521CDEF858
:100A1000003090F800C003F80C20DEF800200378C6
:100A2000DEF800C000781CF8000050FA83F00B7864
:100A30001354DFF8782BDFF89004037898F800005F
:100A4000434302EB0300DEF800209042D0D3BDF810
:100A50000800401EADF80800BDF908000128C0F2EA
:100A60001E8231003A0026002F000498B0F90040A1
:100A70000498801C04900398B0F900500398801CDF
:100A80000390200000B2002800D50024DFF81404F1
:100A90008388A4460FFA8CFC634501DAB0F9044060
:100AA0002B001BB2002B00D500258388AC460FFA23
:100AB0008CFC634501DAB0F90450A01BADF80600C8
:100AC000E81BADF80400BDF80630BDF80400034390
:100AD0001BB2002B02D10E001700B8E716F11F0C55
:100AE0003CF03F0C604600B28011DFF8D033187044
:100AF00017F11F0333F03F03ADF80A30BDF90A00C8
:100B00008011DFF8C0331870DFF8C0E3DFF8C0836E
:100B1000DFF8983ADFF8AC0390F8009098F80000FE
:100B200000FB09F903EB0900CEF80000200000B239
:100B30001F308011DFF888331870280000B21F3092
:100B40008011DFF884331870BDF90600012809DB35
:100B5000BDF90400002805D401235FF020095FF0EF
:100B6000200A53E0BDF90600012816DABDF9040099
:100B7000012812DB02237FF01F095FF0200A20000A
:100B800000B210F03F00202840D1CD480078401C32
:100B9000DFF82CB38BF8000038E0BDF90600002820
:100BA00022D5BDF9040001281EDA04237FF01F0AB4
:100BB000D146200000B210F03F00202806D1C048E6
:100BC0000078401CDFF8F8B28BF80000280000B273
:100BD00010F03F00202819D1BB480078401CDFF8F6
:100BE000E8B28BF8000011E008235FF020097FF0E5
:100BF0001F0A280000B210F03F00202806D1B2489A
:100C00000078401CDFF8C0B28BF80000300000B262
:100C100010F03F00202801D153F08003380000B2CB
:100C200010F03F00202801D153F4807313F4C07FEB
:100C300000F0F180300000B28B460FFA8BFBB0EB76
:100C40000B00BDF904B00BFB00F00090BB460FFA9F
:100C50008BFB100000B2BBEB0000BDF906B00BFB34
:100C600000FB0098584501DA53F01003BDF9040069
:100C7000002808D11000BB4600B20FFA8BFB584584
:100C800001D153F02003BDF90600002808D1080067
:100C9000B34600B20FFA8BFB584501D153F0400325
:100CA000D80540F1B880180010F0500F48D0180057
:100CB00010F0030F0AD03800934600B20FFA8BFBF6
:100CC000584501DA01200BE0002009E01000BB4686
:100CD00000B20FFA8BFB584501DA012000E000203A
:100CE00000282DD0DEF800000078401CDEF800104F
:100CF000087072480078DEF80010DEF800201278E4
:100D000088547449DEF800000A78805C401CDEF8E4
:100D1000002091F800B002F80B00DEF80000DEF8C9
:100D2000002091F800B012F80B20097889189B4632
:100D30005FFA8BFB614A127812EBDB1242546AE0D5
:100D4000180000B210F0130011281ADA180000B2CF
:100D500010F02100212806D130008B4600B20FFA96
:100D60008BFB58450DDB1000BB4600B20FFA8BFB26
:100D7000584516DA3800AB4600B20FFA8BFB5845DF
:100D80000FDADEF800000078401CDEF80010087072
:100D90004A480078DEF80010DEF800201278885407
:100DA00039E0180000B210F01C00112815DA180004
:100DB00000B210F02400242804D1300009B200B29F
:100DC00081420ADB380000B212B2904223DA2800D6
:100DD000390000B209B288421DDA3E49DEF800004F
:100DE0000A78805C401CDEF8002091F800B002F820
:100DF0000B00DEF80000DEF8002091F800B012F8D9
:100E00000B20097889189B465FFA8BFB2B4A1278D6
:100E100012EBDB12425429490878294A1278904291
:100E20007FF4A4AD180010F00C0F2ED1D80506D514
:100E3000DEF8000098F800201044CEF80000DEF83C
:100E40000020DFF86837204890F800C098F80000CC
:100E500000FB0CFC03EB0C008242BFF4F8ADDEF8A3
:100E600000000078401CDEF8002010700878DEF8E2
:100E70000020DEF800301B78D054DEF8000098F82F
:100E800000201044CEF80000D9E71BB213F088030D
:100E9000882B7FF4CEAD0878401C0870C9E509B0F6
:100EA000BDE8F08F0C000020389400203C94002016
:100EB0004094002044940020489400206094002036
:100EC0006294002061940020639400204C940020E0
:100ED0001B4500081A450008509400202DE9F04FEA
:100EE00089B0DFF8C03A1B789B1E8DF80430B0F94A
:100EF0000040801CB1F90050891CB0F90060801CD2
:100F00000590B1F90070881C0490200000B2002800
:100F100000D50024DFF8900A8088210009B28842B9
:100F200003DADFF8840AB0F90440280000B2002890
:100F300000D50025DFF8700A8088290009B28842B0
:100F400003DADFF8640AB0F90450300000B2002878
:100F500000D50026DFF8500A8088310009B28842A7
:100F600003DADFF8440AB0F90460380000B2002860
:100F700000D50027DFF8300A8088390009B288429E
:100F800003DADFF8240AB0F904701088401EADF8C7
:100F9000080077E0180611D5180010F0090F0DD0E1
:100FA000DFF8080A0178491C0170D8F800009DF8A4
:100FB00004100844C8F8000019F14009BDF90610F2
:100FC00089010791614609B289010691BDF90A10AC
:100FD000280000B2091A01FA8AF1BDF9060041435E
:100FE000BDF90C20200000B2121A02FA89F00FFAA3
:100FF0008CFC0CFB101CCDF820C006AA07A908A881
:10100000DFF8ACC91BB2C3F342035CF82330984746
:1010100033E0DFF8A009D8F800100278114411F885
:10102000011C491CD8F8002003781A4402F8011C5E
:10103000D8F800100278D8F800300078184410F87A
:10104000010C50FA82F008449EF8001000F8011CD0
:10105000D8F800009DF804100844C8F80000D8F83B
:101060000010DFF88C2DDFF88C0D03789DF804005C
:10107000434302EB03008142CBD3BDF80800401E7E
:10108000ADF80800BDF908000128C0F23B8221003C
:101090002A0034003D000598B0F900600598801CD6
:1010A00005900498B0F900700498801C04903000FA
:1010B00000B2002800D50026DFF8EC088388B4468B
:1010C0000FFA8CFC634501DAB0F904603B001BB2F7
:1010D000002B00D500278388BC460FFA8CFC6345A3
:1010E00001DAB0F90470301BADF80600B7EB050C5F
:1010F000BDF806005CEA000000B2002802D10C0036
:101100001500BAE714F11F0333F03F03ADF80C30BC
:10111000BDF90C008011DFF89438187015F11F0329
:1011200033F03F03ADF80A30DFF868EDBDF90A008F
:1011300080118EF80000DFF8608DDFF8B43CDFF836
:101140006C0890F800909DF8040000FB09F903EB8F
:101150000900C8F80000300000B21F308011DFF82D
:10116000943C1870380000B21F308011DFF8603DE9
:101170001870BDF90600012809DB604600B200289E
:1011800005D401235FF020095FF0200A57E0BDF984
:101190000600012817DA604600B2012813DB02239B
:1011A0007FF01F095FF0200A300000B210F03F000E
:1011B000202844D1DFF83C0C0078401CDFF834BC18
:1011C0008BF800003BE0BDF90600002824D56046FE
:1011D00000B2012820DA04237FF01F0AD146300034
:1011E00000B210F03F00202807D1DFF8080C00788B
:1011F000401CDFF800BC8BF80000380000B210F093
:101200003F0020281BD1DFF8C80C0078401CDFF815
:10121000C0BC8BF8000012E008235FF020097FF0CB
:101220001F0A380000B210F03F00202807D1DFF875
:10123000A00C0078401CDFF898BC8BF80000200060
:1012400000B210F03F00202801D153F080032800A5
:1012500000B210F03F00202801D153F4807313F442
:10126000C07F00F00581200000B28B460FFA8BFB97
:10127000B0EB0B00E3460FFA8BFB0BFB00F000908A
:10128000AB460FFA8BFB100000B2BBEB0000BDF9C0
:1012900006B00BFB00FB0098584501DA53F0100331
:1012A000604600B2002808D11000AB4600B20FFA29
:1012B0008BFB584501D153F02003BDF906000028EF
:1012C00008D10800A34600B20FFA8BFB584501D1A4
:1012D00053F04003180640F1CB805FF0300B13EA67
:1012E0000B0F51D0180010F0090F0AD020008B46C8
:1012F00000B20FFA8BFB584501DA01200BE0002009
:1013000009E00800A34600B20FFA8BFB584501DA4A
:10131000012000E00020002836D0D8F80000007836
:10132000401CD8F8001008709EF80000D8F8001093
:10133000D8F8002012788854DFF87806D8F8001022
:101340000278114411F8011C491CD8F8002090F8CB
:1013500000B05A4402F8011CD8F80010D8F8002058
:1013600090F800B05A4412F8012C007850FA82F03C
:1013700008449EF800101A0092B2120A12F00102FC
:10138000511800F8011C73E0180010F0060F0ED081
:10139000D8061AD4180000B210F02200222806D174
:1013A0002800934600B20FFA8BFB58450DDB200056
:1013B0008B4600B20FFA8BFB584516DA3000A34675
:1013C00000B20FFA8BFB58450FDAD8F8000000780E
:1013D000401CD8F8001008709EF80000D8F80010E3
:1013E000D8F800201278885442E0180010F0090F55
:1013F0000CD0D80615D4180000B210F048004828C8
:1014000004D1280012B200B282420ADB200009B2E5
:1014100000B281422CDA2000310000B209B28842C9
:1014200026DADFF89005D8F800100278114411F898
:10143000011C491CD8F8002090F800B05A4402F86A
:10144000011CD8F80010D8F8002090F800B05A44D9
:1014500012F8012C007850FA82F008449EF800102F
:101460001A0092B2120A12F00102511800F8011C7F
:101470009EF80000DFF8581A097888427FF48AAD98
:10148000180010F0090F26D1DFF86419DFF864099D
:1014900002789DF80400424301EB0200D8F80010E6
:1014A0008842BFF4EAADD8F800009DF80410494224
:1014B0000844C8F80000D8F800000078401CD8F8AC
:1014C000001008709EF80000D8F80010D8F800202E
:1014D00012788854D8E740F20110190009B201408F
:1014E000814204D19EF80000401C8EF800001806CE
:1014F0007FF5B5ADD8F800009DF804100844C8F891
:101500000000ACE509B0BDE8F08F10B50200274837
:10151000DFF8941449780BE0002303700023DFF810
:10152000944424780355491EDFF878341B78184416
:101530000129F1DADFF89C19DFF89C09FFF7C0F9FF
:1015400010BD10B50200DFF8A808DFF85C14497878
:101550000EE0002303700023DFF85844247804448D
:1015600004F8013C491EDFF83C341B781844801E07
:101570000129EEDADFF85C19DFF85C09FFF7AEFC51
:1015800010BD00002C0000202DE9F04F86B0DFF8E0
:1015900018144A780F3292B212098DF80820034AC3
:1015A000039284464978ADF80A1017E0E8700020ED
:1015B0000598844505D2BCF8000058EA0008ACF84C
:1015C0000080BDF80A00401EADF80A000398DFF85D
:1015D000D413097808440390DDF814C0BDF90A005B
:1015E0000128C0F25F8103980078DFF8C8430399AF
:1015F0002278895C039A531C0493039A23781A4433
:10160000531C0200D2B2022A42DB060000E0761E22
:101610003200D2B2002A3BD00022039F86465FFAF6
:101620008EFE7744B7F1010E2BE097F800809EF80C
:101630000090C84508D23D789EF8008087F8008069
:101640008EF8005052F0010294F8008017F80880DC
:1016500094F800901EF80990C8450FD225787D5D5A
:1016600094F800801EF8088094F8009007F809802C
:1016700094F800800EF8085052F010027F1EBEF160
:10168000010EDDF80C80F045CFD352B2002ABED156
:101690009DF808200CEB420405940200D2B2002A07
:1016A00002D0049A127800E0FF220C00E4B2002C71
:1016B00001D01C7800E0FF2400275FF0100E5FF0DF
:1016C000000801E05B1C1C780600F6B2002E04D175
:1016D0000E00F6B2002E3FF46BAF0026A1469246F4
:1016E0005FFA89F95FFA8AFAD14503D225005FF0E3
:1016F000FF3609E09146A2465FFA89F95FFA8AFA55
:10170000D14501D215000126B1464FFA89F9B9F148
:10171000000F74D0B946F7194FFA89F9B9F1000FE3
:1017200031D1A946F2465FFA89F95FFA8AFAD145C2
:1017300010D3BCF8009058EA0908ACF800801CF1FE
:10174000020C5FF000081EF1100E03E01CF1020C09
:101750001EF1100EF146AA465FFA89F95FFA8AFA7D
:10176000D145F3D3DFF874A7AB465FFA8BFB1BF1CF
:10177000100BF1465FFA89F9BBEB090B3AF81B90A5
:1017800059EA08086EE0B9464FFA89F9B9F1000F35
:1017900068D1A946F2465FFA89F95FFA8AFAD1451B
:1017A00014D3BCF8009058EA0908ACF800801CF18A
:1017B000020C4FF6FF781EF1100E07E04FF6FF798E
:1017C000ACF800901CF1020C1EF1100EA946F24676
:1017D0005FFA89F95FFA8AFAD145EFD2DFF8FCA601
:1017E000AB465FFA8BFB1BF1100BF1465FFA89F9F0
:1017F000BBEB090B3AF81B9038EA090832E07FF09E
:10180000010BDDF8149092465FFA8AFA5FEA2A1A11
:1018100009EB4A099DF808A00BFB0AFACDF800A0D5
:10182000CDF80490DDF814A091465FFA89F95FEADB
:1018300029190AEB49099DF808A00BFB0AFA39F8A7
:101840000A90DFF89CB692465FFA8AFA1AF00F0AFD
:101850003BF81AA05AEA0909DDF804A0DDF800B047
:101860002AF80B90B1464FFA89F9B9F1000F0DD45F
:10187000401E0200D2B2002A07D0049A12F10109D8
:10188000CDF81090049A127800E0FF2276B2012E73
:10189000BFF61AAF491E0C00E4B2002C7FF412AF61
:1018A000FF2411E706B0BDE8F08F2DE9F04F0100ED
:1018B0003D4A53780F339BB21B090024DFF83055A3
:1018C00004E0641C374800782844851E20005678C0
:1018D000C0B2B0424BD26E1C364807782F44007815
:1018E000284410F801CC95F800E036E0B9F1010980
:1018F0004846C0B200282ED0504610F1010A0078A8
:10190000C3465FFA8BFB5845F0D1C1465FFA89F9AF
:101910001800C0B2A2465FFA8AFA5FEA2A1A00FBF0
:1019200009A95FFA88F81800C0B2A2465FFA8AFADD
:101930005FEA2A1A00FB08A031F81080DFF8A00542
:10194000A2465FFA8AFA1AF00F0A30F81A0050EA33
:10195000080821F81980BEF1010E7046C0B20028B7
:10196000AFD096F80080761CBA46E146C0E7BDE8E5
:10197000F08F38B504000D00B5F9000000280FD035
:101980002800FFF7C2FD2000FFF7FEFD0648407863
:10199000312805DA2800FFF7D4FD2000FFF785FF86
:1019A00031BD00001B4500080C00002060940020A1
:1019B000400000201A4500082DE9FF4FAFB002A9F2
:1019C0000DF1080802A8019000262F98B0F9000038
:1019D000319AB2F90020821A3098B0F90000329B97
:1019E000B3F90030C31A3C98B0F9000002FA80F055
:1019F000319CB4F90040041B3D98B0F9000003FA93
:101A000080F0329DB5F90050451B002C01D4270011
:101A100000E06742002D01D4280000E068428742C0
:101A200002DA17EB400701E010EB470753EA020028
:101A300020432843002824D12F98B0F90000DDF876
:101A4000C4C0BCF900C060451BD13198B0F900009A
:101A5000DDF8F0C0BCF900C0604512D13098B0F993
:101A60000000DDF8C8C0BCF900C0604509D132985B
:101A7000B0F90000DDF8F4C0BCF900C0604500F02A
:101A8000B3815FF0010E02E01EF1010EBF10812F45
:101A9000FADA7046C0B2092801DB5FF0080E0127B0
:101AA00017FA0EF7DFF89808D0F800C0DFF828041E
:101AB000BCEB000C5FEA6C0C0CFA87F040F2731C74
:101AC000604580F291817046C0B20628C0F28781DD
:101AD00001262F980088A8F8000018F10200DDF810
:101AE000C0C0BCF800C0A0F800C0801CDDF8C4C0B5
:101AF000BCF800C0A0F800C0801CDDF8C8C0BCF86D
:101B000000C0A0F800C0801CDDF8F0C0BCF800C028
:101B1000A0F800C0801CDDF8F4C0BCF800C0A0F83C
:101B200000C0801C8DF800E0CDE0B1F80080DDF849
:101B3000BC90A9F80080891CB1F80080DDF8C09045
:101B4000A9F80080891CB1F80080DDF8C490A9F8DC
:101B50000080891CB1F80080DDF8C890A9F80080E9
:101B6000891CB1F80080DDF8F090A9F80080891C8C
:101B7000B1F80080DDF8F490A9F80080891CDDF848
:101B8000C480B8F9008018F101085FEA4808DDF860
:101B9000F090B9F9009008FA89F8DDF8BC90B9F92D
:101BA000009008FA89F85FEAA808DDF8C890B9F94A
:101BB000009019F101095FEA4909DDF8F4A0BAF9CA
:101BC00000A009FA8AF9DDF8C0A0BAF900A009FA64
:101BD0008AF95FEAA909DDF8BCA0BAF800A0A0F86C
:101BE00000A0801CDDF8C0A0BAF800A0A0F800A0FA
:101BF000801CDDF8BCA0BAF900A0DDF8C4B0BBF9C8
:101C000000B00BFA8AFA5FEA6A0AA0F800A0801C0A
:101C1000DDF8C0A0BAF900A0DDF8C8B0BBF900B08B
:101C20000BFA8AFA5FEA6A0AA0F800A0801CA0F802
:101C30000080801CA0F80090801CA0F80080801C10
:101C4000A0F80090801CDDF8C480B8F90080DDF8B1
:101C5000F090B9F9009009FA88F85FEA6808A0F8EE
:101C60000080801CDDF8C880B8F90080DDF8F490B1
:101C7000B9F9009009FA88F85FEA6808A0F80080CE
:101C8000801CDDF8F080B8F80080A0F80080801C8F
:101C9000DDF8F480B8F80080A0F80080801C1CF10A
:101CA000010CE0465FFA88F8B1460FFA88F80FFA9F
:101CB00089F9C845FFF639AF76009DF800C0BCF140
:101CC00001088DF800809DF800C0BCF1060FC0F23D
:101CD0008680019901905FF0000CE2E7300000B2CD
:101CE000012838DB5FF0050E202708882F9A108026
:101CF000881C0188309A1180801C0188319A1180DB
:101D0000801C0188329A1180801C01883C9A1180C5
:101D1000801C01883D9A1180811C2F98B0F9000029
:101D2000319AB2F90020821A3098B0F90000329B43
:101D3000B3F90030C31A3C98B0F90000319CB4F9F3
:101D40000040041B14193D98B0F90000329DB5F90C
:101D50000050451B5D195FEA4E001EF1010E12FA9C
:101D60000EF2A21A13FA0EF3EB1A64006D00DDF8FE
:101D7000BCC0BCF900C01CFA00FCDDF8C080B8F99A
:101D8000008018FA00F812EB0C0C13EB0808DFF8CF
:101D9000B095E2465AFA00FAD9F800B0ABF800A0C4
:101DA000D9F800A01AF1020AC9F800A0DFF83491AE
:101DB000C2465AFA00FAD9F800B0ABF800A0D9F838
:101DC00000A01AF1020AC9F800A0A218EB187F1EA1
:101DD000B9460FFA89F9B9F1010FD4DA761E30004D
:101DE00000B200287FF57AAF33B0BDE8F08F000075
:101DF0009089002062940020F0B585B004000F00A7
:101E000015001E0020882818ADF80A0060883018D8
:101E1000ADF80800DFF82805BDF80A100268118047
:101E20000168891C01602F48BDF808100268118004
:101E30000168891C01607F1E7F1026E0A088281899
:101E4000ADF81200E0883018ADF81000208928188D
:101E5000ADF80E0060893018ADF80C0003A80190B1
:101E60000DF10E00009004AB0DF1120202A90DF16C
:101E70000A00FFF7A1FDBDF90E00ADF80A00BDF99B
:101E80000C00ADF808007F1E0834012FD6DA05B02B
:101E9000F0BD0000619400205094002070B412E066
:101EA000DFF89C4405885519266835802568AD1CE7
:101EB00025600C4C45885D19266835802568AD1C69
:101EC0002560491E001D0129EADA70BC7047000038
:101ED00063940020AC860020C883002030C900082D
:101EE000D8C9000858000020F0B4B1F90250B0F988
:101EF00002402D1B002D05D4B1F90240B0F902506B
:101F0000651B04E0B0F90240B1F90250651BB1F95C
:101F10000060B0F90040361B002E05D4B1F9006016
:101F2000B0F90040341B04E0B0F90060B1F90040A2
:101F3000341BA54216DA0025B1F90040B0F9006063
:101F4000B44201D1002623E0B1F90260B0F90240A9
:101F5000361B3602B1F90070B0F900403F1B96FB0A
:101F6000F7F615E00125B1F90240B0F90260B4427C
:101F700001D100260CE0B1F90060B0F90040361B39
:101F80003602B1F90270B0F902403F1B96FBF7F63A
:101F9000B2F90270B3F902403F1B002F05D4B2F929
:101FA0000240B3F90270E71B04E0B3F90240B2F952
:101FB0000270E71BB2F900C0B3F90040BCEB040C9F
:101FC000BCF1000F06D4B2F900C0B3F90040BCEB7D
:101FD000040405E0B3F900C0B2F90040BCEB04040E
:101FE000A74215DAB2F90040B3F90070BC4201D142
:101FF000002424E0B2F90270B3F902403F1B3F0213
:10200000B2F90040B3F90020A41A97FBF4F416E0EB
:1020100055F01005B2F90240B3F90270BC4201D18B
:1020200000240CE0B2F90070B3F900403F1B3F02FE
:10203000B2F90240B3F90220A41A97FBF4F4A642C5
:1020400000D1741C002D07D0012D67D0102D2ED08B
:10205000112D00F09C80C5E0B3F9002002FB04F2D2
:102060004FF4807592FBF5F5B0F9002002FB06F203
:102070004FF4807792FBF7F2AD1AB0F90220AD1859
:10208000B3F90220AD1A2D02A41B95FBF4F20A80CD
:10209000B1F90030B0F900209B1A06FB03F64FF4AB
:1020A000807296FBF2F2408882184A809AE0B3F977
:1020B000002072434FF4807592FBF5F2B0F90250A4
:1020C0005219B0F9000000FB06F04FF4807590FB48
:1020D000F5F0121A04FB06F5B3F9020045435FF46C
:1020E000803095FBF0F0121A120266434FF48070B4
:1020F00096FBF0F0D0F1FF0092FBF0F04880B1F9D0
:102100000220B3F90200121A04FB02F44FF48070AB
:1021100094FBF0F2188882180A8063E0B3F9022079
:1021200002FB06F24FF4807592FBF5F2B0F9005015
:1021300002FA85F504FB06F7B3F9002057435FF474
:10214000803297FBF2F2AD1AB0F9020000FB06F004
:102150004FF4807290FBF2F02D1A2D0266434FF47B
:10216000807096FBF0F0D0F1FF0095FBF0F0088056
:10217000B1F90020B3F90000121A04FB02F44FF485
:10218000807094FBF0F2588882184A802AE0B0F9F7
:102190000050B3F90020AD1AB3F9022002FB04F29B
:1021A0004FF4807392FBF3F25519B0F9022002FB51
:1021B00006F24FF4807392FBF3F2AD1A2D02A41BCA
:1021C00095FBF4F24A80B1F90230B0F902209B1A73
:1021D00006FB03F64FF4807296FBF2F20088821839
:1021E0000A80FFE7F0BC70472DE9F84FADF51A7D86
:1021F000040001208DF80500002500208DF8040062
:102200000DF5BC796089ADF81000A089ADF80A0021
:10221000A688DFF8580C4A490860DFF8540CDFF84C
:10222000541C08602088002806D0DFF84C8CB8F8D1
:102230000C002188884201D20020FAE307AA082175
:10224000208806235843001FDFF8303C1B6818180D
:10225000D8F80830181801F04BF90DF11C0B9BF859
:1022600001009DF81C3053EA00239BF803009BF803
:10227000021051EA0021ADF80810BDF8080002284C
:1022800030DBBDF80800022806D1A18805204143B3
:10229000042091FBF0F625E0BDF80800032821DBBF
:1022A000BDF8080000F29510208007AA08212088B8
:1022B00006235843001FDFF8C43B1B681818D8F8E2
:1022C0000830181801F014F99BF803009BF802304D
:1022D0001B0453EA00639BF8010053EA00239DF8B6
:1022E0001C0003439BF804008DF806009BF80500D2
:1022F0008DF807002088B8F80C10884207D09DF8A8
:1023000023009BF8061051EA0021C91A07E0DFF804
:10231000700B0068DFF8641B0968411AC91A0800CD
:1023200080B2F12800DBF0215EAAC9B2DFF84C0BC5
:102330000068C318D8F80800C01801F0D9F832E0D6
:10234000540000202A00D2B20320424352FA81F7FF
:102350000AA80A00D2B200EB820080882EAA3B00B5
:10236000DBB222F823000AA80A00D2B200EB8200F6
:10237000C0882EAA3B00DBB202EB83025080491CCE
:102380000800C0B20328DDDB2800C0B238F9200005
:10239000ADF828001EA82900C9B200EB81004088D2
:1023A000ADF82A006D1C99F90000ADF8000019F194
:1023B000010090F90010ADF80210401C2900C9B2CC
:1023C00000293CD19DF80610012910D004291DD008
:1023D000052923D0062919D007291FD00A2915D08D
:1023E0000B2923D00C2911D00D291FD026E0BDF8D0
:1023F000001094F90E208918ADF80010BDF80210F5
:1024000094F90F208918ADF8021058E0BDF80010BB
:1024100094F90E208918ADF8001050E0BDF80210B4
:1024200094F90F208918ADF8021048E0BDF80210A9
:1024300094F90E208918ADF8021040E03FE09DF8B5
:10244000041004293BD19DF80610032910D0062959
:102450002DD007291BD0082929D0092917D00A29EE
:102460001DD00B2923D00E2919D00F291FD026E00B
:10247000BDF8001094F90E208918ADF80010BDF8D1
:10248000021094F90F208918ADF8021017E0BDF87A
:10249000001094F90E208918ADF800100FE0BDF877
:1024A000001094F90F208918ADF8001007E0BDF86E
:1024B000021094F90F208918ADF80210FFE70DF112
:1024C0007808BDF90020BDF810104A43802192FB26
:1024D000F1F12A00D2B228F82210BDF90220BDF88D
:1024E0000A104A43802192FBF1F11EAA2B00DBB2B5
:1024F00002EB830251809DF80410042915D090F856
:1025000000A010F101091AF004008DF804001AF07F
:10251000030A1AA82900C9B200F801A05046C0B2A7
:1025200000283FF431AF002039E090F90010ADF8F9
:102530001410401C0DF1140990F90010A9F80210B4
:1025400010F1010B5046C0B200280BD09BF90000DF
:10255000A9F804001BF1010090F90010A9F8061079
:1025600010F1010B00256AE1032115FB01F72EA9EB
:102570000200D2B252FA87F299F9003021F82230E3
:1025800019F101012EAA0300DBB253FA87F302EB23
:10259000830291F90030538011F10109401C0100C0
:1025A0005246C9B2D2B29142DED39DF8070029004B
:1025B000C9B288426ED1032000FB05A0471E9DF8DA
:1025C0000600022810D0042844D0052828D0082866
:1025D00026D009283ED00C282FD00D283AD00E281E
:1025E0001ED00F2846D055E02EA83900C9B230F8C9
:1025F000211094F90E2089183A00D2B220F8221046
:102600002EA83900C9B200EB8100408894F90F1060
:1026100040182EA93A00D2B201EB8201488039E07D
:102620002EA83900C9B230F8211094F90E2089186B
:102630003A00D2B220F822102CE02EA83900C9B2FC
:1026400030F8211094F90F2089183A00D2B220F8FE
:1026500022101FE02EA83900C9B200EB810040888B
:1026600094F90F1040182EA93A00D2B201EB820162
:1026700048800FE02EA83900C9B200EB81004088E5
:1026800094F90E1040182EA93A00D2B201EB820143
:102690004880FFE700213EE02A00D2B203204243F7
:1026A00052FA81F72EAA3800C0B232F92030BDF8B4
:1026B00010004343802093FBF0F03B00DBB222F894
:1026C00023003800C0B232F820000AAA0B00DBB2A7
:1026D00002EB830290802EA83A00D2B200EB820077
:1026E000B0F90220BDF80A004243802092FBF0F0CE
:1026F0002EAA3B00DBB202EB830250802EA83A00E8
:10270000D2B200EB820040880AAA0B00DBB202EBD7
:102710008302D080491C08005246C0B2D2B2904217
:10272000BAD35046C0B203287FF42EAE9DF80700FE
:102730002900C9B288427FF427AE9DF8060002281E
:102740007FF422AE2800C0B200280DD12800C0B20C
:1027500038F92000ADF828001EA82900C9B200EB06
:1027600081004088ADF82A000DAB0CAA0BA90AA87D
:10277000FFF7BAFB002103E69BF90000ADF80C005F
:102780001BF1010090F90020ADF80E2010F1010BB3
:10279000BDF90C20300080B24243802092FBF0F261
:1027A0002EABBC465FFA8CFC0800C0B2BCEB000C40
:1027B00033F82C0082180AA80B00DBB200EB830070
:1027C0008280BDF90E20300080B24243802092FB0F
:1027D000F0F22EABBC465FFA8CFC0800C0B2BCEB3A
:1027E000000C03EB8C00408882180AA80B00DBB2B7
:1027F00000EB8300C280491C08005246C0B2D2B22E
:102800009042B9D39DF807002900C9B288420DD182
:102810005046C0B2032809D19DF80600022805D110
:102820000DAB0CAA0BA90AA8FFF75EFB9DF80500EB
:10283000002804D09DF80400002800D16D1C280059
:10284000C0B2002803D19DF8050001286BD19BF987
:102850000000C0B21BF1010191F90020ADF8142075
:10286000491C91F90020A9F80220491C91F9002087
:10287000A9F80420491C91F90020A9F8062011F1BB
:10288000010B0700BFB23F0910F004018DF80410DE
:1028900010F00300ADF808009DF80400002802D0F5
:1028A00000208DF80500BDF91410300080B24143BE
:1028B000802091FBF0F12800C0B238F820004118C8
:1028C000ADF81410B9F90210300080B241438020F5
:1028D00091FBF0F11EA82A00D2B200EB82004088E2
:1028E0004118A9F80210B9F90410300080B2414330
:1028F000802091FBF0F12800C0B238F82000411888
:10290000A9F80410B9F90610300080B241438020C4
:1029100091FBF0F11EA82A00D2B200EB82004088A1
:102920004118A9F806102800C0B2002829D0BDF827
:1029300014000AA95246D2B201EB82018880B9F88C
:1029400002000AA95246D2B201EB8201C880504669
:10295000C0B200280CD0B4F90830B4F906205FFAF0
:102960008AFA1AF1020A51460AA8FFF745FA14E05A
:10297000B4F90830B4F9062002210AA8FFF78EFA4C
:102980000BE09DF80500002818D0BDF91400ADF843
:102990000000B9F80200ADF80200BDF91400ADF86E
:1029A00028000DF1280AB9F80200AAF80200380040
:1029B000C0B2002800F0A680002173E0BDF800003E
:1029C0000AA95246D2B201EB82018880BDF802000A
:1029D0000AA95246D2B201EB8201C8805046C0B269
:1029E00000280CD0B4F90830B4F906205FFA8AFA4E
:1029F0001AF1020A51460AA8FFF7FEF907E0B4F9F6
:102A00000830B4F9062002210AA8FFF747FADFF8D8
:102A10003C1ADFF8580442880B681A80DFF850240B
:102A20005288DFF850341B681A800968081A401071
:102A300080B20DF51B7DBDE8F08F9BF90000ADF86D
:102A40000C001BF1010090F90020ADF80E2010F1F0
:102A5000010BBDF90C20300080B24243802092FB74
:102A6000F0F22800C0B238F8200082180AA80B0043
:102A7000DBB200EB83008280BDF90E20300080B213
:102A80004243802092FBF0F21EA82B00DBB200EB49
:102A90008300408882180AA80B00DBB200EB830099
:102AA000C280491C08003A00C0B2D2B29042C4D3DE
:102AB000B9F804000AA93A00D2B201EB8201888079
:102AC000B9F806000AA93A00D2B201EB8201C88027
:102AD000BDF8080000280AD0B4F90830B4F906207F
:102AE0003900C9B2891C0AA8FFF786F927E0B4F9B2
:102AF0000830B4F906203900C9B2891C0AA8FFF7CA
:102B0000CDF91CE0DFF844190A68DFF86003121AF7
:102B10005210B2F5B97F73DAE288BDF8140082185A
:102B2000086802800868801C0860D2492289B9F8C8
:102B300002008218086802800868801C0860B9F9E1
:102B40000400ADF82800B9F80600AAF802009DF8C4
:102B50000500002800D16D1E1AA82900C9B210F87E
:102B600001A05046C0B200283FF44CAE9DF80500CD
:102B7000002846D0032015FB00F70021080052462C
:102B8000C0B2D2B29042BFF43DAE9BF90000ADF8A6
:102B90000C001BF1010090F90020ADF80E2010F19F
:102BA000010BBDF90C20300080B24243802092FB23
:102BB000F0F22EA80B00DBB253FA87F330F82300B3
:102BC00082180AA80B00DBB200EB83008280BDF9FB
:102BD0000E20300080B24243802092FBF0F22EA8FB
:102BE0000B00DBB253FA87F300EB830040888218B6
:102BF0000AA80B00DBB200EB8300C280491CBDE7D2
:102C000005E7032000FB05A0471E0021F4E530B4D2
:102C100001000800000A0A00B1F5803F80F0CD8075
:102C20000100C9B2002909D11100C9B27F2905DA12
:102C3000D2B21F3A52F00072100013E00100C9B284
:102C4000B039482910D21100C9B2A1290CDB040007
:102C5000E4B25E20D2B200FB0424DFF8F4070419CA
:102C6000641C200030BC70470100C9B281392029A2
:102C70000ED21100C9B2802900DB521E0400E4B25A
:102C8000BE20D2B200FB0424DFF8C8070419E7E72E
:102C90000100C9B2AA2912DB0100C9B2A1290EDACA
:102CA0001100C9B2802900DB521E0400E4B2BE202C
:102CB000D2B200FB0424DFF8A0070419D0E701001A
:102CC000C9B2A13907290FD21100C9B2A1290BDB62
:102CD000C0B25E21D2B201FB0020DFF880170818D5
:102CE000401C50F08070BDE70100C9B2A83902292C
:102CF00013D21100C9B2A1290FDA1100C9B280297B
:102D000000DB521EC0B26021D2B201FB0020B0F540
:102D10007D50401C50F08070A4E70100C9B2AA2980
:102D200011DB1100C9B2A1290DDA1100C9B2802945
:102D300000DB521E0400E4B26020D2B200FB042487
:102D4000B4F55D648CE70100C9B2812917D1110087
:102D5000C9B2802909DA0400E4B20A20D2B200FB29
:102D6000042404F5A85426347AE70400E4B20A20C7
:102D7000D2B200FB042404F5A854253470E7010006
:102D8000C9B2822917D11100C9B2802909DA040019
:102D9000E4B20A20D2B200FB042404F5A854DA34C9
:102DA0005EE70400E4B20A20D2B200FB042404F57A
:102DB000A854D93454E7002054E7090C1300DBB2BF
:102DC000303B0A2B01D300204CE70B0048F23915A9
:102DD0009BB2AB4213D10100C9B2EE29FFF640AF5E
:102DE0000100C9B2FF293FF43BAF0400E4B20A205E
:102DF000D2B200FB042404F590448B3430E70D007C
:102E0000ADB248F23023ED1A052D17D20300DBB224
:102E1000812BFFF625AF0300DBB2FF2B3FF420AF81
:102E200089B240F2EC44C0B20A23584304FB0101CA
:102E300051FA82F4DFF82806041911E748F2352325
:102E400089B299420FD10100C9B281390729BFF473
:102E500007AF0400E4B20A20D2B200FB042404F558
:102E6000CC441334FCE60020FCE60000C8830020BC
:102E7000AC860020580000200C0000204894002060
:102E80003894002080B5FFF7C2FE02BD2DE9F44F53
:102E90008CB007000C001D0001A8102100F098FB69
:102EA00008A8102100F094FBDFF8B86505AA0421FA
:102EB000DFF8B405006810EB8700B368181800F05D
:102EC00017FB05AFB87897F801805FEA082858EA41
:102ED00000489DF8140050EA0808F8788DF80200C0
:102EE0005FF0000919E0BDF808008000ADF80800A7
:102EF000BDF80E004000ADF80E00BDF81000400017
:102F0000ADF8100001A8FFF76FF9ADF800006946B1
:102F10002800FEF72EFD19F1010948469DF8021020
:102F2000C0B2884280F0DD8005AA08214846C0B2C0
:102F300018EBC000DFF830351B681818B368181894
:102F400000F0D6FA78789DF8141051EA0021ADF817
:102F50000410B878ADF806002078C0B28008C0B27E
:102F600097F9031049B22278520101FB0020ADF815
:102F70000A002078C0B28008C0B297F9041049B2A4
:102F80002278520101FB0020ADF80C0079792078FD
:102F900041438910ADF80E10B9792078414389106A
:102FA000ADF81010F9790C98007841438910ADF80C
:102FB0000810BDF80600012895D0DFF8B0A405AAD6
:102FC0000421BDF806305B1CDAF8000010EB83002A
:102FD000B368181800F08CFAF978B878000450EA51
:102FE0000160797850EA01209DF814100843BDF87B
:102FF0000420521EBDF806104A430923DAF80010D7
:1030000003FB0212B1688A18101882465FF0000BA9
:1030100047E0002013E0002097F9031049B2BDF803
:103020000E20C0B202FB01008011BDF90A1000FAA7
:1030300081F0ADF8260038790006EAD53F2097F9EF
:10304000041049B2BDF81020C0B202FB010080118B
:10305000BDF90C1000FA81F0ADF828007979BDF8BF
:103060000E0041438911ADF82A10B979BDF810005E
:1030700041438911ADF82C1097F907008DF82E0007
:1030800097F908008DF82F0008A8FFF7ADF8ADF804
:10309000000069462800FEF76CFC1BF1010B1AF1D9
:1030A000090A5846C0B2BDF8061080B28842BFF483
:1030B00032AF05AA0921504600F01AFA78789DF837
:1030C000141051EA0021ADF82010B978BDF80800BD
:1030D00041434911ADF82410F87800069BD53F20F4
:1030E0009AE70DB0BDE8F08F2DE9F84F88B0804623
:1030F0000C0015001E0001A8102100F069FADFF88D
:10310000647305AA0421DFF86803006810EB8800E7
:10311000BB68181800F0ECF90DF1140898F80300DA
:1031200098F802905FEA092959EA004998F80100E5
:1031300050EA09099DF814A05FF0000B5AE005AAB7
:1031400009215846C0B25FF0090CDFF828331B682C
:103150000CFB003019EB0000BB68181800F0C8F930
:1031600098F801009DF8141051EA0021ADF8041000
:1031700098F80210287841438910ADF8081020789B
:10318000C0B28008C0B298F9031049B22278520147
:1031900001FB0020ADF80A002078C0B28008C0B260
:1031A00098F9041049B22278520101FB0020ADF8D1
:1031B0000C0098F80510207841438910ADF80E10E6
:1031C00098F80610207841438910ADF810109DF949
:1031D0001B008DF8120098F908008DF8130001A863
:1031E000FFF702F8ADF8000069463000FEF7C1FBBA
:1031F0001BF1010B58465146C0B2C9B288429ED35A
:1032000009B0BDE8F08F007803281CD0052820D035
:10321000062824D0072828D008282CD0092830D008
:103220000A2833D00B2836D00C2839D00D283CD0B2
:103230000E283ED0102840D0112842D0122844D069
:10324000132846D049E0DFF83002DFF818229060FA
:1032500043E0DFF82802DFF80C2290603DE0DFF861
:103260002002DFF80022906037E0DFF81802DFF874
:10327000F421906031E0DFF81002DFF8E82190607F
:103280002BE0DFF80802774A906026E0DFF80002C2
:10329000744A906021E0DFF8FC01724A90601CE003
:1032A000DFF8F4016F4A906017E07C486D4A906047
:1032B00013E07B486B4A90600FE07A48694A90605F
:1032C0000BE07948674A906007E07848654A90606B
:1032D00003E07748634A9060FFE70888B0F5807F95
:1032E00003D174485F498860FFE770472DE9F341D7
:1032F00082B006000B9DD2B24FF48070DBB200FBAF
:10330000023237009DF80C00012823D11100090A70
:103310000A9B2800C0B2102804D0182806D0202804
:103320000AD00EE00020644C20600AE010234FF425
:10333000C060614C206004E04FF4C0505E4C2060DF
:10334000FFE7EDB20095DBB2D2B2C9B23000FCF7B4
:10335000BDFF78E09DF80C101000FFF793FD04000E
:103360002000000CADF80400A4B2DFF8F88098F853
:1033700000009DF80C10884205D1B8F80200BDF895
:10338000041088420DD001A903A8FFF73CFFFCF709
:10339000C3FF9DF80C0088F80000BDF80400A8F8F1
:1033A0000200002C07D0D8F81800A04203D3280050
:1033B000C0B2C12800DB46E098F801002900C9B27C
:1033C00088421AD088F8015098F80100401E800108
:1033D000A8F8040098F8010018280BD098F80110FC
:1033E000C91D89B2090989B298F801004143C8F89A
:1033F0001C1002E04020C8F81C00D8F81C0003E0B4
:1034000000213980BF1C401E0028F9D1D8F81400D3
:10341000A0420AD233000CAA18F10101D8F8140016
:10342000241A2000FFF732FD06E033000CAA18F141
:1034300001012000FFF758FE98F80100182802D17A
:103440003000FDF70BF8BDE8FF81000054000020BC
:10345000BFBEFFFF72BAFFFFC4B3FFFF01C5FFFF8E
:1034600037897FFD0C000020409400204494002008
:10347000389400203C940020BDA51000F7032300E1
:103480008278310003524000124C020022E0010019
:10349000C6290200D1CF0200F06D0200E9F102005E
:1034A0002A19030077B70100E08F010055070200D9
:1034B00026990200853F03003494002001B5FF23C4
:1034C00001226946094800F01FF901BDE0B5FF205F
:1034D0008DF80400FF20009001230DF1050201A9E1
:1034E000024800F0E3FA9DF805000EBD549000205C
:1034F0002DE9F04104000D001600002700221021E4
:103500005FF0904000F071FE0320FFF7D7FF20002E
:10351000000CC0B2FFF7D2FF2000000AC0B2FFF7D4
:10352000CDFF2000C0B2FFF7C9FF5FF00008280000
:10353000C0B2804506D2FFF7C9FF06F8080018F1AF
:103540000108F4E7012210215FF0904000F04DFEE9
:103550003078BDE8F081F0B4024610689568131821
:10356000506803EB5004C0071DD54D441BE013F811
:10357000017B05F8017B491EF9D1A0B1B60813F80B
:10358000011B06F00306032E08BF13F8016B01EBC5
:1035900006214942801C294405D011F8016B05F829
:1035A000016B401EF9D1A3420ED013F8016B16F047
:1035B000030104BF13F8011BC91C30090F28DAD11D
:1035C00013F8010B0F30D6E7F0BC02F10C00704786
:1035D000002200F02BBE30B4002513E050F8042B7D
:1035E000D30744BFA9F101039A18091F042942F81F
:1035F000045BFAD213468C0744BF15809B1CC90795
:1036000048BF1D7050F8041B0029E7D130BC70473B
:1036100010B50400002C01D1012074E0606A00287C
:1036200006D16068B0F5827F06D00020E06103E03B
:1036300000202061002060610020A06294F85D00FD
:10364000002805D1002084F85C00200000F067FE0F
:10365000022084F85D002068006830F04000216896
:103660000860E06840F20171884201D3002101E066
:103670004FF48051E068B0F5706F05D0E068B0F5A8
:10368000E06F01D00020A062606810F48270A26830
:1036900012F404421043227C12F002021043227DF5
:1036A00012F001021043A26912F400721043227F4B
:1036B00012F03802104394F8202012F080021043D8
:1036C000A26A12F40052104322681060A269120C20
:1036D00012F0040294F8240010F01000024394F851
:1036E000340010F008000243E06810F470600243F8
:1036F00011F48050024320684260002020660120BF
:1037000084F85D00002010BD2DE9FC4706000D0087
:1037100017001C005FF0000896F85C00012801D13A
:103720000220E9E0012086F85C0000F061FE81469D
:10373000BA4696F85D00012802D002208046D3E008
:10374000002D03D0380080B2002802D1012080462D
:10375000CAE0032086F85D0000203066B563B787B5
:10376000F787002030640020A6F844000020A6F867
:103770004600002030650020F064B068B0F5004FCE
:103780000BD13068006830F0400031680860306864
:10379000006850F480403168086030680068400676
:1037A00005D43068006850F0400031680860F06867
:1037B00040F20171884230D37068002803D050462F
:1037C00080B2012809D1B06B00883168C860B06B45
:1037D000801CB063F08F401EF087F08F002869D006
:1037E0003068806880070AD5B06B00883168C8608F
:1037F000B06B801CB063F08F401EF087EDE700F0E7
:10380000F7FDB0EB0900A04202D314F1010F01D182
:10381000002CE2D10320804666E07068002803D0C7
:10382000504680B2012817D1F08F02280AD3B06B1E
:1038300000883168C860B06B801CB063F08F801E58
:10384000F08709E0B06B007831680873B06B401CFA
:10385000B063F08F401EF087F08F00282AD03068C8
:103860008068800718D5F08F02280AD3B06B0088D3
:103870003168C860B06B801CB063F08F801EF08729
:10388000EAE7B06B007831680873B06B401CB06336
:10389000F08F401EF087DFE700F0AAFDB0EB0900D3
:1038A000A04202D314F1010F01D1002CD4D1032086
:1038B000804619E04A462100300000F07CFB0028D9
:1038C00001D020203066B068002808D10020009088
:1038D0003068C06800903068806800900098306E52
:1038E000002801D001208046012086F85D000020DC
:1038F00086F85C004046C0B2BDE8F6872DE9F84383
:1039000006000D0017001C005FF000087068B0F59D
:10391000827F0ED1B06800280BD1042086F85D00AC
:1039200000943B009BB22A002900300000F0BEF852
:10393000BAE096F85C00012801D10220B4E0012031
:1039400086F85C0000F054FD814696F85D00012881
:1039500002D0022080469FE0002D03D0380080B2C4
:10396000002802D10120804696E0042086F85D0000
:10397000002030663564A6F84470A6F84670002032
:10398000B0630020B0870020F0870020F0640020A2
:10399000306540F20170F168814206D331684968B0
:1039A00031F480513268516005E03168496851F462
:1039B000805132685160B168B1F5004F0BD1316868
:1039C000096831F04001326811603168096831F4EA
:1039D00080413268116031680968490605D4316850
:1039E000096851F0400132681160F168814222D2C9
:1039F000B6F84600002841D030688068C0070CD572
:103A00003068007B316C0870306C401C3064B6F854
:103A10004600401EA6F84600EAE700F0E9FCB0EBDD
:103A20000900A04202D314F1010F01D1002CDFD113
:103A30000320804630E0B6F8460000281ED03068EB
:103A40008068C0070CD53068C068316C0880306C65
:103A5000801C3064B6F84600401EA6F84600EAE72F
:103A600000F0C6FCB0EB0900A04202D314F1010F34
:103A700001D1002CDFD1032080460DE04A46210011
:103A8000300000F055FA002801D020203066306E5A
:103A9000002801D001208046012086F85D0000202A
:103AA00086F85C004046C0B2BDE8F2832DE9FE4FC7
:103AB00007000D00160098460C9C5FF001095FF0AE
:103AC000000A97F85C00012801D1022053E101208F
:103AD00087F85C0000F08CFC834697F85D008DF859
:103AE000000078680290ADF80280ADF804809DF87F
:103AF000000001280DD00298B0F5827F06D1B86889
:103B0000002803D19DF80000042802D0022082463C
:103B100029E1002D05D0002E03D0404680B20028B8
:103B200002D1012082461EE197F85D00042802D0F0
:103B3000052087F85D00002038663E64A7F84680BF
:103B4000A7F84480BD63A7F83E80A7F83C8000201A
:103B5000F8640020386540F20170F968814203D2B0
:103B6000BDF80410022906D33968496831F4805140
:103B70003A68516005E03968496851F480513A6803
:103B8000516039680968490605D43968096851F0F7
:103B900040013A681160F968814250D37868002882
:103BA00003D0BDF80200012809D1B86B008839683C
:103BB000C860B86B801CB863F88F401EF887F88F18
:103BC000002804D1B7F84600002800F0C18038680A
:103BD0008068800711D5F88F00280ED0B9F1010F49
:103BE0000BD1B86B00883968C860B86B801CB863AB
:103BF000F88F401EF8870020814638688068C0072B
:103C000011D5B7F8460000280DD03868C068396C67
:103C10000880386C801C3864B7F84600401EA7F84E
:103C200046000120814600F0E3FBB0EB0B00A04210
:103C3000C5D314F1010FC2D00320824693E0786807
:103C4000002803D0BDF80200012817D1F88F022800
:103C50000AD3B86B00883968C860B86B801CB86339
:103C6000F88F801EF88709E0B86B00783968087310
:103C7000B86B401CB863F88F401EF887F88F002897
:103C800003D1B7F84600002862D038688068800702
:103C90001FD5F88F00281CD0B9F1010F19D1F88F6A
:103CA00002280AD3B86B00883968C860B86B801CDA
:103CB000B863F88F801EF88709E0B86B0078396820
:103CC0000873B86B401CB863F88F401EF88700205B
:103CD000814638688068C0072CD5B7F846000028B0
:103CE00028D0B7F84600022816D33868C068396C67
:103CF0000880386C801C3864B7F84600801EA7F82E
:103D00004600B7F84600022812D23868406850F4DE
:103D10008050396848600BE03868007B396C087067
:103D2000386C401C3864B7F84600401EA7F84600BF
:103D30000120814600F05CFBB0EB0B00A04202D3F7
:103D400014F1010F01D1002C98D1032082460AE022
:103D50005A462100380000F02EF9002803D0012037
:103D6000824620203866012087F85D00002087F811
:103D70005C005046C0B2BDE8FE8F2DE9FC4705004F
:103D80000E0017009846DDF8289000F031FB040083
:103D9000B8EB040419EB040400F02AFB82466348E4
:103DA00000684001000D00FB04F000902868806866
:103DB0003040B04201D1012000E000203900C9B2FA
:103DC000884243D018F1010FF0D000F011FBB0EBA6
:103DD0000A00A04201D2002C2FD12868406830F0A0
:103DE000E000296848606868B0F5827F0DD1A86856
:103DF000B0F5004F03D0A868B0F5806F05D12868F2
:103E0000006830F0400029680860A86AB0F5005FDB
:103E10000BD12868006830F40050296808602868D1
:103E2000006850F4005029680860012085F85D00A2
:103E3000002085F85C00032009E00098002801D1EB
:103E4000002004000098401E0090AFE70020BDE86D
:103E5000F6872DE9FC4706000F0014009846DDF8B0
:103E6000289000F0C5FA0500B8EB050519EB05052B
:103E700000F0BEFA82462D48016823204143090D17
:103E800001FB05F10091306880683840A0424AD0BB
:103E9000B7F5C06F03D1002C01D13068007B18F159
:103EA000010FF0D000F0A4FAB0EB0A00A84201D252
:103EB000002D2FD13068406830F0E0003168486054
:103EC0007068B0F5827F0DD1B068B0F5004F03D0B7
:103ED000B068B0F5806F05D13068006830F0400000
:103EE00031680860B06AB0F5005F0BD130680068D7
:103EF00030F40050316808603068006850F40050B9
:103F000031680860012086F85D00002086F85C00BA
:103F1000032009E00098002801D100200500009846
:103F2000401E0090AFE70020BDE8F68708000020A3
:103F30007CB504000D0016006068B0F5827F0DD1DD
:103F4000A068B0F5004F03D0A068B0F5806F05D130
:103F50002068006830F040002168086000962B005F
:103F6000002280212000FFF708FF002805D0206EE6
:103F700050F02000206603201CE06068B0F5827FCE
:103F800017D1A068B0F5004F03D0A068B0F5806FDE
:103F90000FD100962B0000224FF4C0612000FFF7E4
:103FA00058FF002805D0206E50F020002066032026
:103FB00000E0002076BD7CB504000D0016000096E0
:103FC0002B0000224FF4C0512000FFF742FF0028D1
:103FD00005D0206E50F02000206603201FE00096E0
:103FE0002B00002280212000FFF7C7FE002805D00B
:103FF000206E50F020002066032010E000962B0079
:1040000000224FF4C0612000FFF723FF002805D0F5
:10401000206E50F020002066032000E0002076BDD6
:10402000F8B4030000250868E840002800F0DB80B1
:1040300001260F6816FA05F007403A00002A00F042
:10404000D0804868012808D04868022805D0486810
:10405000112802D0486812281DD19F685FF0030C18
:104060002800C0B240001CFA00FC37EA0C07D1F867
:104070000CC02800C0B240001CFA00FC5CEA070734
:104080009F605868AE40B0434E68C6F30016AE401D
:10409000304304005C60DE6803272800C0B24000A3
:1040A00017FA00F08643D1F808C02800C0B24000DB
:1040B0001CFA00FC5CEA0606DE604868022802D0B2
:1040C000486812281ED12800C00803EB8000046A4B
:1040D0005FF00F0C15F00700C0B280001CFA00FC66
:1040E00034EA0C04D1F810C015F00700C0B280000B
:1040F0001CFA00FC5CEA040426002800C00803EB5C
:10410000800006621C682800C0B240008740BC43A3
:104110000F7917F003072800C0B2400087403C43E6
:104120001C604868C0005CD53648066856F0010639
:104130000660006810F0010000900098324F2800DF
:10414000800857F820605FF00F0C15F00300C0B234
:1041500080001CFA00FC36EA0C06B3F1904F01D146
:10416000002414E02948834201D101240FE02848AB
:10417000834201D102240AE02648834201D103246C
:1041800005E02548834201D1042400E0072415F00E
:104190000300C0B28000844026432800800847F80E
:1041A00020601E4C206890434F68FF0300D51043E9
:1041B00020601B4E346894434F68BF0300D51443FE
:1041C0003460184E306890434F68FF0200D51043AA
:1041D0003060154E346894434F68BF0200D51443D5
:1041E00034606D1C1FE7F1BC70471300DBB2002B7D
:1041F00003D00B009BB2836102E00B009BB2836291
:1042000070470000601002400800014000040048B0
:1042100000080048000C004800100048000401405D
:1042200004040140080401400C04014000B500BF33
:10423000130096469446103928BFA0E80C50FAD8CF
:104240005FEA417C28BF0CC048BF40F8042BC90777
:1042500028BF20F8022B48BF00F8012B00BDB1F5A4
:10426000807F02D34FF0FF3070470170012070470C
:104270000078401E8041C043C00F704780B554484D
:10428000544901604FF482714160002181604FF414
:10429000E061C16000210161002141614FF40071C2
:1042A00081611021C1610021016200214162002170
:1042B00081620721C1620021016300214163FFF790
:1042C000A7F9002801D000F027F901BD80B54248C8
:1042D000424901604FF4827141604FF400418160B6
:1042E0004FF4E061C16000210161002141614FF4A0
:1042F000007181611021C1610021016200214162D0
:10430000002181620721C162002101630021416314
:10431000FFF77EF9002801D000F0FEF801BD10B5CE
:1043200086B0040068461421FFF752F92068294935
:10433000884223D12A48016851F480510160006805
:1043400010F48050059005982648016851F001014D
:104350000160006810F0010005900598E0200090D1
:104360000220019000200290032003900520049079
:1043700069465FF09040FFF753FE26E0206817493A
:10438000884222D11848016851F4804101600068D8
:1043900010F48040059005981248016851F0020120
:1043A0000160006810F00200059005984FF420406D
:1043B000009002200190002002900320039005202D
:1043C000049069460948FFF72BFE06B010BD0000B7
:1043D0005490002000300140B89000200038004088
:1043E000601002404C100240581002400004004887
:1043F00001480068704700BFE093002080B500F0DE
:104400008DF800F017F800F09BF800F015F900F0B7
:104410008DF9FFF733FFFFF759FF00F0B1F900F016
:10442000CDF900F0E9F900F0AEFA00F0C7FC00F0B9
:10443000CAFAFEE700B5ADB005A84421FFF7C8F8F9
:1044400068461421FFF7C4F816A85C21FFF7C0F8EE
:1044500000F01CFD2D48016831F0180101600520B5
:1044600005905FF4803006900120079002200F90A5
:104470000320109001201190142012900720139017
:10448000022014900220159005A800F007FD0028D6
:1044900001D000F041F80F2000900320019000208F
:1044A000029000200390002004900421684601F04F
:1044B00042F8002801D000F02FF81548169000208F
:1044C0001E9000201F90002020905FF040502A9006
:1044D0004FF480702C9016A801F0E0F9002801D06C
:1044E00000F01AF84FF4007001F02EFC002801D003
:1044F00000F012F82DB000BD10B504002068054989
:10450000884201D101F064FC10BD0000901002400F
:1045100007400200001400407047070E10B5002449
:10452000032001F0BEFC002001F0E8FC002802D0CE
:104530000120040001E001F02BFD2000C0B210BDFD
:1045400010B586B068461421FFF742F83848016874
:1045500051F004010160016811F004010591059911
:10456000016851F080010160016811F0800105913E
:104570000599016851F001010160016811F0010124
:1045800005910599016851F002010160006810F081
:10459000020005900598002240F202715FF0904001
:1045A000FFF723FE012210215FF09040FFF71DFE70
:1045B000204C012201212000FFF717FE002245F2C6
:1045C00018212000FFF711FE40F212700090012028
:1045D0000190002002900020039069465FF0904017
:1045E000FFF71EFD45F219200090012001900020E8
:1045F00002900020039069462000FFF711FD4FF460
:10460000C0500090002001900020029069465FF0A9
:104610009040FFF705FD4FF480700090002001905E
:104620000020029069462000FFF7FAFC06B010BD9A
:104630004C1002400004004810B586B068461821AE
:10464000FEF7C6FF344C3548206000206060002033
:10465000A0600020E0600020206104206061002054
:104660002076002060760120E061002084F82000A0
:104670000020A0620020E062002084F830000020CA
:104680006063002084F83800200001F03EFD00281F
:1046900001D0FFF741FF2248009006200190002042
:1046A00002907F200390042004900020059069462A
:1046B000200001F02DFE002801D0FFF72DFF06B0ED
:1046C00010BD10B586B0040001A81421FEF780FFCC
:1046D0002068124988421CD11248016851F40051E7
:1046E0000160016811F4005100910099016851F0D6
:1046F00002010160006810F00200009000980220A2
:1047000001900B2002900020039001A90648FFF7BA
:1047100087FC06B010BD0000F08F002000000450A0
:10472000000021434C1002400004004880B51148AD
:1047300011490160002141607F218160FF21C1603A
:104740000021016100214161002181610021C161DD
:1047500002F03EF8002801D0FFF7DEFE01BD01683F
:10476000054A914204D105490A6852F400420A60A0
:104770007047000000930020002800409010024085
:1047800080B57648764901605FF46121416000217F
:1047900081600021C160002101610C214161002183
:1047A00081610021C161002101620021416202F0AA
:1047B000DDF8002801D0FFF7AFFE01BD80B56948E4
:1047C000694901605FF4612141600021816000213D
:1047D000C160002101610C21416100218161002142
:1047E000C161002101620021416202F0BFF800288E
:1047F00001D0FFF791FE01BD80B55C485C490160C6
:104800005FF4E1314160002181600021C16000213D
:1048100001610C214161002181610021C161002100
:1048200001620021416202F0A1F8002801D0FFF7E7
:1048300073FE01BD10B586B0040068461421FEF772
:10484000C7FE20684649884222D14A48016851F48F
:1048500080410160006810F480400590059846484A
:10486000016851F002010160006810F0020005903B
:104870000598C020009002200190002002900320A3
:1048800003900720049069463C48FFF7C9FB56E0B7
:104890002068354988422BD13948016851F40031EC
:1048A0000160006810F400300590059832480168F6
:1048B00051F001010160006810F0010005900598B9
:1048C0000C20009002200190002002900320039011
:1048D0000720049069465FF09040FFF7A1FB00229B
:1048E0000621262001F0E3FA262001F0F5FA26E061
:1048F00020681F49884222D12148016851F4802153
:104900000160006810F48020059005981A4801683D
:1049100051F002010160006810F002000590059856
:104920004FF440600090022001900020029003208C
:1049300003900720049069461048FFF771FB06B00A
:1049400010BD11B581B00C004FF6FF73012201A913
:10495000024802F048F8019816BD0000708E002051
:1049600000380140F08E002000440040708F00208D
:1049700000480040601002404C1002400004004813
:10498000581002407047EFF3058000280CD1EFF378
:104990001080002803D1EFF31180002807D0DFF842
:1049A000AC010068022802D17FF005000AE0DFF8C0
:1049B0009C110868002803D101200860002001E054
:1049C0005FF0FF30704710B5EFF3058000280CD181
:1049D000EFF31080002803D1EFF31180002807D0F7
:1049E000DFF868010068022802D17FF005000EE0C0
:1049F000DFF858412068012807D1FFF7C3FF0220E4
:104A0000206002F036FE002001E05FF0FF3010BDB4
:104A10002DE9FF4707008846140000200390EFF3BC
:104A2000058000286FD1EFF31080002803D1EFF349
:104A30001180002804D0DFF814010068022862D039
:104A4000380000285FD08020824618200500002012
:104A500081465FF0FF300600002C33D0206800282C
:104A600001D020688146A069002801D0A069050016
:104A7000002D04D0392D02D22079C00701D50020A5
:104A800042E06069002802D0606980088246A06820
:104A900000280BD0E0685C2808D32069002805D0E6
:104AA0006069002802D0012006000DE0A0680028FF
:104AB0000AD1E068002807D12069002804D100202D
:104AC000060001E000200600012E0CD1A068029033
:104AD000206901900095434652464946380002F04D
:104AE00053FC03900FE0002E0DD103A80190009518
:104AF0004346524692B24946380002F094FC0128DF
:104B000001D000200390039804B0BDE8F08738B5C9
:104B10000400EFF3058000280CD1EFF3108000288B
:104B200003D1EFF31180002807D0DFF824000068DC
:104B3000022802D17FF0050505E00025002C02D0F7
:104B4000200002F06FFD280032BD0000B893002065
:104B5000B89300202DE9F84305000E0014005FF023
:104B60000008EFF30580002859D1EFF310800028EA
:104B700003D1EFF31180002804D0DFF82802006889
:104B800002284CD0002D4AD0002E48D05FF0FF30D4
:104B90000700002C1FD0A06800280DD0E068502826
:104BA0000AD32069002807D0606906FB05F1884216
:104BB00002D30120070010E0A06800280DD1E068B2
:104BC00000280AD12069002807D16069002804D193
:104BD0000020070001E000200700012F09D100207C
:104BE0000090A36822693100280003F04DF9804647
:104BF00007E0002F05D100223100280003F0A5F9BD
:104C00008046B8F1000F0AD0002C02D020688146FF
:104C100001E0002081464946404603F0EEFC404654
:104C2000BDE8F2832DE9F84307000C0090461D0013
:104C30003E005FF00009EFF3058000280BD1EFF391
:104C40001080002803D1EFF31180002827D05548A9
:104C50000068022823D1002E03D0002C01D0002DA3
:104C600003D07FF00300814632E000200090002353
:104C70006A462100300003F084FA012803D07FF057
:104C80000200814624E00098002821D05FF0805087
:104C900045490860BFF34F8FBFF36F8F18E0002EB8
:104CA00001D0002C03D17FF00300814610E00023E7
:104CB0002A002100300003F091F9012808D0002DCE
:104CC00003D07FF00100814602E07FF002008146C0
:104CD0004846BDE8F2832DE9F84307000C009046F2
:104CE0001D003E005FF00009EFF3058000280BD1A6
:104CF000EFF31080002803D1EFF31180002826D0B5
:104D000028480068022822D1002E03D0002C01D0B0
:104D1000002D03D07FF00300814630E0002000909A
:104D20006A462100300003F053FB012803D07FF0D6
:104D30000200814623E00098002820D05FF08050D8
:104D400019490860BFF34F8FBFF36F8F17E0002E34
:104D500001D0002C03D17FF0030081460FE02A0030
:104D60002100300003F07DFA012808D0002D03D087
:104D70007FF00100814602E07FF002008146484654
:104D8000BDE8F283094B0360094B0B60802313607D
:104D90007047084B0360084B0B604FF4807313603F
:104DA00070470000B893002004ED00E01C91002043
:104DB000D08B002078910020C87F002080B52E4A3B
:104DC00001214FF49670FFF7C5FE2C4908602C4A6C
:104DD00000210FF20D00FFF71BFE2A49086001BDFC
:104DE0002DE9F041ADF58D6D0400002501A840F2DC
:104DF0006441FEF7EDFB01220DF10101224801F0B3
:104E00005FFE1E4F5FF0FF33002269463868FFF7F0
:104E100062FF0028F5D10DF104089DF8000008F8A4
:104E200005006D1C2E00C823002269463868FFF774
:104E300052FF002805D19DF8000008F80600761CF6
:104E4000F1E7320001A9012004F078F940F264474B
:104E50005FF0000801AD42463900280004F024FA52
:104E60000025CEE701B5002300226946034800680B
:104E7000FFF7D8FE01BD000060CA0008C8930020FB
:104E80000CC90008C4930020F08E0020024801687D
:104E900051F4807101607047007000402DE9FE4FB1
:104EA0000500002D01D1012043E3DFF81C99D9F85A
:104EB000004014F00C04DFF81C89D8F8007017F0DB
:104EC00003072878C00640F1C680002C03D00C2CC4
:104ED0007AD1012F78D1DFF8ECA8DAF8000080074A
:104EE00004D5A869002801D1012022E3DAF80000E6
:104EF000000704D5DAF8000010F0F00005E0DFF854
:104F000064090068000910F0F000296A88421ED286
:104F1000286A00F061FC002801D0012009E3DAF8DA
:104F2000000050F00800CAF80000DAF8001031F074
:104F3000F001286A0143CAF80010DFF82C09016863
:104F400031F47F41EA6951EA022101601FE0DAF899
:104F5000000050F00800CAF80000DAF8001031F044
:104F6000F001286A0143CAF80010DFF8FC08016864
:104F700031F47F41EA6951EA02210160002C06D137
:104F8000286A00F029FC002801D00120D1E200F0BD
:104F900078FBDFF8D818D9F80020C2F30312895C37
:104FA00011F01F01C840DFF824180860DFF820085E
:104FB000006800F0A3FF8DF800009DF800000028B5
:104FC00049D09DF80000B4E2A86900282DD0DFF890
:104FD000F497D9F8000050F00100C9F80000FFF77D
:104FE00007FA0600D9F80000800706D4FFF700FA98
:104FF000801B0328F6D303209BE2D9F8000050F071
:105000000800C9F80000D9F8001031F0F001286A52
:105010000143C9F80010DFF85008016831F47F41FE
:10502000EA6951EA0221016015E0DFF89897D9F8A2
:10503000000040084000C9F80000FFF7D9F9060059
:10504000D9F80000800706D5FFF7D2F9801B0328A6
:10505000F6D303206DE22878C00754D5082C03D07E
:105060000C2C0BD1032F09D1DFF8580700688003FF
:1050700049D56868002846D101205AE26868B0F531
:10508000803F06D1DFF83C07016851F480310160B0
:1050900018E06868B0F5A02F0AD1DFF8280701688A
:1050A00051F480210160016851F48031016009E010
:1050B000DFF81007016831F480310160016831F4D4
:1050C00080210160686800280ED0FFF791F9060082
:1050D000DFF8F0060068800315D4FFF789F9801B1C
:1050E0006528F5D3032024E2FFF782F90600DFF8F4
:1050F000D4060068800306D5FFF77AF9801B65287F
:10510000F5D3032015E22878800752D5042C03D06C
:105110000C2C15D1022F13D1DFF8A806006840052A
:1051200004D5E868002801D1012002E2DFF8380741
:10513000016831F0FE412A6951EA0261016038E0FC
:10514000E86800281FD0DFF87C96D9F8000050F4FA
:105150008070C9F80000FFF74BF90600D9F800008D
:10516000400506D4FFF744F9801B0328F6D303203B
:10517000DFE1DFF8F406016831F0FE412A6951EA07
:105180000261016015E0DFF83C96D9F8000030F4C8
:105190008070C9F80000FFF72BF90600D9F800006D
:1051A000400506D5FFF724F9801B0328F6D303201A
:1051B000BFE1287800072ED56869002815D0DFF8F0
:1051C000A496D9F8000050F00100C9F80000FFF7DC
:1051D0000FF90600D9F8000080071CD4FFF708F982
:1051E000801B0328F6D30320A3E1DFF87896D9F8D3
:1051F000000040084000C9F80000FFF7F9F8060079
:10520000D9F80000800706D5FFF7F2F8801B0328C5
:10521000F6D303208DE12878400740F181805FF0CC
:105220000009DFF84CA6DAF80000C0000DD4DAF867
:10523000000050F08050CAF80000DAF8000010F0CA
:1052400080500190019801208146DFF828B6DBF8F4
:105250000000C00513D4DBF8000050F48070CBF8D8
:105260000000FFF7C5F80600DBF80000C00506D413
:10527000FFF7BEF8801B0328F6D3032059E1A86886
:10528000012806D1DFF8F005016851F00101016045
:1052900017E0A86805280AD1DFF8DC05016851F09D
:1052A00004010160016851F00101016009E0DFF8CB
:1052B000C8050168490849000160016831F004012E
:1052C0000160A868002810D0FFF792F80600DFF808
:1052D000A8050068800719D4FFF78AF8801B41F2FF
:1052E00089318842F3D3032023E1FFF781F80600D8
:1052F000DFF884050068800708D5FFF779F8801B80
:1053000041F289318842F3D3032012E14846C0B20A
:10531000012805D1DAF8000030F08050CAF800000A
:10532000287880062ED5686A002815D0DFF84C95BD
:10533000D9F8000050F00100C9F80000FFF758F854
:105340000600D9F8000080071CD4FFF751F8801B35
:105350000328F6D30320ECE0DFF82095D9F800000D
:1053600040084000C9F80000FFF742F80600D9F8ED
:105370000000800706D5FFF73BF8801B0328F6D313
:105380000320D6E0A86A002800F0D280A86A02288C
:1053900040F0A380D8F80000070017F00300E96A86
:1053A000884222D117F07000296B491EB0EB011F13
:1053B0001BD117F4FE40696BB0EB012F15D117F02C
:1053C0007840A96BB0EBC16F0FD117F4C000E96B47
:1053D0004908491EB0EB415F07D117F0C060296C46
:1053E0004908491EB0EB416F57D00C2C53D0DFF861
:1053F000D4A3DAF80000400101D5012099E0DAF8E1
:10540000000030F08070CAF80000FEF7F1FF81461E
:10541000DAF80000800107D5FEF7EAFFB0EB0900DB
:105420000328F5D3032084E0D8F80010DFF85004F7
:105430000140E86A0143286B401E51EA0011686B85
:1054400051EA0021E86B4008401E51EA4051286CA7
:105450004008401E51EA4061A86B51EAC061C8F89B
:105460000010DAF8000050F08070CAF80000D8F898
:10547000000050F08070C8F80000FEF7B9FF060089
:10548000DAF80000800153D4FEF7B2FF801B032836
:10549000F6D303204DE001204BE0DFF82893D9F844
:1054A0000000800144D4D9F8000050F08070C9F8A1
:1054B0000000D8F8000050F08070C8F80000FEF737
:1054C00097FF0600D9F80000800131D4FEF790FF65
:1054D000801B0328F6D303202BE00C2C26D0DFF80A
:1054E000E492D9F8000030F08070C9F80000D9F8D3
:1054F0000000000105D4D8F8000080088000C8F83A
:105500000000D8F80010DFF87C030140C8F8001054
:10551000FEF76EFF0600D9F80000800108D5FEF7FF
:1055200067FF801B0328F6D3032002E0012000E080
:105530000020BDE8FE8F2DE9F04104000D00002C95
:1055400001D101209BE0DFF84073386810F00700BC
:10555000A8420BD23868C008C000284338603868B9
:1055600010F00700A84201D0012088E02078C00791
:1055700042D56068032806D1DFF848020068800140
:105580001CD401207BE06068022806D1DFF83402D9
:105590000068800312D4012071E06068002806D101
:1055A000DFF820020068800708D4012067E0DFF8F8
:1055B00014020068400501D4012060E0DFF8088291
:1055C000D8F800108908890060680143C8F8001005
:1055D000FEF70EFF0600D8F8000010F00C0061681E
:1055E000B0EB810F08D0FEF703FF801B41F2893139
:1055F0008842F0D3032042E02078800706D5724924
:105600000A6832F0F002A06802430A60386810F0BD
:10561000070085420BD23868C008C00028433860B4
:10562000386810F00700A84201D0012027E0207858
:10563000400706D564490A6832F4E062E068024334
:105640000A602078000707D55F48016831F460518F
:10565000226951EAC201016000F013F8DFF80C1270
:10566000594A1268C2F30312895C11F01F01C84045
:10567000564908605648006800F040FCC0B2BDE8DA
:10568000F0812DE9F041002600204F49096811F012
:105690000C01DFF840C1DCF8007017F003070029A7
:1056A00003D00C291AD1012F18D1DFF818E1DEF848
:1056B00000805FEA087806D4DFF8A8E1DEF800E0B1
:1056C000CEF3032E03E0DEF800E0CEF3031E6F4EB0
:1056D00056F82E6000290CD130000AE0042903D1CD
:1056E000DFF8ACE1704604E0082902D1DFF8A4E15C
:1056F00070460C292DD1DCF800E01EF0030E734635
:105700009E46BEF1020F03D0BEF1030F03D005E0A9
:10571000DFF87CE103E0DFF87CE100E0B646DCF88E
:105720000020C2F30212521C1500DCF80020C2F364
:10573000062202FB0EFEBEFBF5F2DCF800C0CCF345
:10574000416C1CF1010C5FEA4C0C6446B2FBF4FCAA
:105750006046BDE8F0811D480068704780B5FFF7DE
:10576000FAFF4D49184A1268C2F30222895C11F00F
:105770001F01C84002BD80B5FFF7EDFF4649124A40
:105780001268C2F3C222895C11F01F01C84002BD39
:105790000F2202600C4A136813F00303436013687E
:1057A00013F0F0038360136813F4E063C3601268BE
:1057B000D20812F4E0620261334A126812F0070262
:1057C0000A607047001002400810024008000020E4
:1057D000040000200C1002407CB504000025244E7B
:1057E0003068C00003D500F0A9FA01000FE030686E
:1057F00050F080503060306810F080500090009879
:1058000000F09CFA0100306830F080503060B1F553
:10581000007F09D1812C15D3A12C02D302200500D1
:1058200010E0012005000DE0812C02D303200500CB
:1058300008E0802C02D10220050003E0702C01D189
:105840000120050010480268D208D2002A430260F5
:10585000006810F00700A84201D0012000E00020FD
:1058600076BD00009410024004100240D0CA000827
:105870005810024000700040901002409810024002
:105880008C809D01FFFFEEFE00200240E4C6000870
:105890000024F40000127A001CCB00082DE9F84F18
:1058A000050000275FF000082868000527D5686C10
:1058B00000280DD0B0F5000F03D0B0F5400F0DD08B
:1058C0000DE0DFF8DC02016851F48031016008E08E
:1058D0000021281D00F06EF9070002E001E0012020
:1058E00007003800C0B2002808D1DFF8C4120A68E7
:1058F00032F44002686C02430A6000E0B84628684F
:1059000080037AD55FF00009DFF898A2DAF800008A
:10591000C0000DD4DAF8000050F08050CAF8000042
:10592000DAF8000010F080500090009801208146C5
:10593000DFF874B2DBF8000050F48070CBF80000A0
:10594000FEF756FD0600DBF80000C00506D4FEF7A2
:105950004FFD801B0328F6D3032007003800C0B298
:1059600000283FD1DFF844B2DBF8000010F44070AB
:105970000400002C15D0A86D844212D0DBF8000082
:1059800030F440700400DBF8000050F48030CBF8B5
:105990000000DBF8000030F48030CBF80000CBF8DA
:1059A0000040E0070FD5FEF723FD0600DBF80000FE
:1059B000800708D4FEF71CFD801B41F28931884224
:1059C000F4D3032007003800C0B2002808D1DBF868
:1059D000001031F44071A86D0143CBF8001002E0D3
:1059E000B84600E0B8464846C0B2012805D1DAF80A
:1059F000000030F08050CAF800002878C00707D5B2
:105A0000DFF8AC110A6892089200286A02430A6023
:105A10002878800707D5DFF898110A6832F00C0261
:105A2000686A02430A602878400707D5DFF88011CA
:105A30000A6832F03002A86A02430A6028788006B9
:105A400007D5DFF86C110A6832F44062E86A024355
:105A50000A602868800507D5DFF854110A6832F417
:105A60004022E86B02430A602868400507D5DFF84A
:105A700040110A6832F44012286C02430A60287808
:105A8000400607D5DFF828110A6832F44052286B27
:105A900002430A602878000607D5DFF814110A6867
:105AA00032F44042686B02430A602868C00507D59B
:105AB000DFF8FC100A6832F44032A86B02430A6037
:105AC0002868000320D5DFF8E8100A6832F0406249
:105AD000A86C02430A60A86CB0F1006F06D1DFF831
